:020000041008E2
:4000000000780408F90208100D00000061030810610308106103081061030810000000000000000000000000000000005D0308105D030810000000005D0308105D0308104C
:400040005D0308105D0308105D0308105D0308105D0308105D0308105D0308105D0308105D0308105D0308105D0308105D0308105D0308105D0308105D0308105D03081000
:400080005D0308105D0308105D0308105D0308105D0308105D0308105D0308105D0308105D0308105D0308105D0308105D0308105D0308109D0508105D0308105D0308107E
:4000C0005D0308105D0308105D0308105D0308105D0308105D0308105D0308105D0308105D0308105D0308105D0308105D0308105D0308105D0308105D0308105D03081080
:400100005D0308105D0308105D0308105D0308105D0308105D0308105D0308105D0308105D0308105D0308105D0308105D0308105D0308105D0308105D0308105D0308103F
:400140005D0308105D0308105D0308105D0308105D0308105D0308105D0308105D0308105D0308105D0308105D0308105D0308105D0308105D0308105D0308105D030810FF
:400180005D0308105D0308105D0308105D0308105D0308105D0308105D0308105D0308105D0308105D0308105D0308105D0308105D0308105D0308105D0308105D030810BF
:4001C0005D0308105D0308105D0308105D0308105D0308105D0308105D0308105D0308105D0308105D0308105D0308105D0308105D0308105D0308105D0308105D0308107F
:400200005D0308105D0308105D0308105D0308105D0308105D0308105D0308105D0308105D0308105D0308105D0308105D0308105D0308105D0308105D0308105D0308103E
:400240005D0308105D0308105D0308105D0308105D0308105D0308105D0308105D0308105D0308105D0308105D0308105D0308105D0308105D0308105D0308105D030810FE
:400280005D0308105D0308105D03081010B5054C237833B9044B13B10448AFF300800123237010BDC4470208000000006C180810084B10B51BB108490848AFF3008008488C
:4002C000036803B910BD074B002BFBD0BDE81040184700BF00000000C84702086C180810DC420208000000007047EFF3108072B6704780F310887047FFF7F6FF72B6114C98
:40030000114DAC4209DA21686268A368043BA2BFC858D050FAE70C34F3E70C490C4A00209142BCBF41F8040BFAE70A480A490860BFF34F8F00F01EF900F0F8F800F01EF889
:40034000FEE700007018081088180810C4470208D04902080040020808ED00E0FEE7FEE700B504207146084202D0EFF3098001E0EFF30880043001F0A5F8FEE708B562B641
:4003800000F02EF90249034800F064F9FEE700BF040114418C420208704700BF5C4AD2F8803303F00F0303F1D00152F8212002F00702032A04D0042A05D092B9554914E0A3
:4003C000554A116811E003F1C002514951F8222002F01F02112A06D0132A04D04FF4FA4103E04E4901E04FF400418BBB484BD3F8902502F00100D3F88825C2F30172D3F8D0
:40040000883513F0405F07D0414BD3F88835C3F30173012B02D102E0012300E0002303B108B9032A46D13A48D0F88025C2F31103D0F88425C2F30C02D0F88005C0F300603B
:400440000130B1FBF2F202FB03F2B2FBF0F131E0012B2FD12E4BD3F8402602F00100D3F80026C2F30172D3F8003613F0405F07D0274BD3F80036C3F30173012B02D102E050
:40048000012300E0002303B108B9032A12D12048D0F8002602F07F02D0F80036C3F30423D0F80006C0F3044002FB01F2B2FBF3F2B2FBF0F1164BD3F88033C3F3011321FA53
:4004C00003F215494A601648D0F89030C3F3072301330069000E0130B2FBF0F08860B2FBF3F3CB600B6103F5742202F23F220D48A0FB0202C2F387420A7503F2E7330A4A87
:40050000A2FB03239B098B61DB03CB61704700BF0000264000127A00B042020800366E010000214083DE1B43D34D621008B5104BD3F8802122F0404242F08042C3F880213B
:40054000D3F8802142F00042C3F88021D3F8802122F00102C3F88021FFF71EFFFFF71EFF00F024F800F02AF800F05CFD08BD00BF0000264008B5FFF7B8FE074AD2F88830AF
:4005800043F47003C2F88830BFF34F8FBFF36F8FFFF7AFFE08BD00BF00ED00E008B5024800F018FB08BD00BF0C48020808B500221146042000F014F908BD00BF10B500F06F
:4005C000DCFF0446044800F0C7F9044800F028FA204600F0D6FF10BDE0470208D815081008B5084B1B7833B90749084800F0A6FE0122044B1A70054A136843F000431360DC
:4006000008BD00BF604902080C1608100000144110B584B00C4C0D49204600F033FB009400218DF80410032302938DF80C108DF80D10074C6A46204600F032FC236843F038
:400640000043236004B010BD64490208401608100000284038B505460C46094B1B7E23B9FFF7D6FF0122064B1A76054B5D609C60044AD2F8003843F00043C2F8003838BDCE
:40068000644902080000284038B50C4B9A680C4B9A420ED10D46044619B9FC21094800F001FF04F11003064A52F8230042F8235038BD1030044B53F8200038BD00ED00E0D3
:4006C00000400208701608100000081070B338B504460D464368072B03D93621154800F0E1FEB4F900306268002B08DB5201D2B203F1604303F5614383F8002305E003F0DC
:400700000F035201D2B20C49CA540C4B9A680C4B9A420DD11DB94521064800F0C3FE2946B4F90000FFF7B0FF002038BD05487047002038BD7016081014ED00E000ED00E07D
:40074000004002080100560038B50369002B0DDA0D4604460B0C1B0423B140F2A721044800F0A0FEA9B26160002038BD014838BDB416081001008A0038B50368002B01DAB8
:40078000002300E0094B73B90D460446C2600B0C1B0423B140F28E21054800F083FEA9B2A160002038BD014838BD00BF01008A00B416081038B504460D4619B9992106480F
:4007C00000F070FE2369002B03DAE3682B60002038BD024838BD00BFF416081001008A000F2840D8F8B515460E46044682B979B90F2804D940F29D11214800F053FE600110
:4008000000F1804000F50C101E4B18600020F8BD5DB366B316F01F0F2BD10F2C04D940F29D11174800F03EFE640104F1804404F50C14144F3C607E60BD60F20800212846AA
:4008400000F0A2FE00212046FFF77EFF3A4652F8040B0021FFF790FF68B900213868FFF773FF50B9F8BD084870470748F8BD0648F8BD0548F8BD0548F8BD0448F8BD00BF95
:40088000341708108049020803018A0001018A002DE9F0411B4B1B68DC68236883422CD90D464609A0EB4610012303FA00F819B900F063FE074600E00027124B18680368C4
:4008C000002B01DA002300E00F4B83B9626852F8263018EA030F05D023EA080342F82630002400E0094C0021FFF72EFF00E0084C25B9384600F045FE00E0064C2046BDE8C1
:40090000F08100BF8049020801008A00020188000301880004018A000B4B1B68DB681A6882420CD94109A0EB4110012202FA00F05B6853F82130184203D00448704704482C
:4009400070470448704700BF804902080101880004018A0000018800024B1B680BB9014B186070478C4902082DE9F8430446884691461E46089F072803D9B421244800F014
:4009800091FD244B1B682C2000FB04F01C18F5B21D50C6F307236360360CA6600F2D04D940F29D111C4800F07DFD6D0105F1804505F50C15256165680F2D04D94FF4DC713F
:4009C000154800F06FFD154B03EB45156561A668330C1B0423B14FF4EB710F4800F062FD330C1B0423B140F2D7110B4800F05AFDB3B243EA0646AE60C4F81C90C4F82080B5
:400A00000023A36117B1B7F90030A381BDE8F883741708108C4902083417081000102340F0B58FB0044618B950212C4800F03AFDA369072B03D95421284800F033FDE36AD4
:400A40001BB95621254800F02DFDE368072B03D95721224800F026FD236A072B03D958211E4800F01FFD236B1BB959211B4800F019FD07AE04F114050FCD0FC62F6802ADD1
:400A800026460FCE0FC533682B60079B1933ADF83030089B0D93A26AE16A0CAD00953B460A98FFF761FF00210091069B0A460598FFF75AFF216B2846FFF708FEBDF9303004
:400AC000002B08DB590903F01F03012202FA03F3034A42F821300FB0F0BD00BF7417081000E100E0F8B507460E461D4614461AB9FC21224800F0D6FC072F03D9FD211F4837
:400B000000F0D0FC072E03D9FE211C4800F0CAFC1B4B1B682C2202FB073002FB06367368012202FA03F31B04476802FA07F70269EAB1B169E9B91268002A01DA002200E010
:400B4000104AC2B92288134323600369DC600123B361756204693B0C1B0423B140F28E21094800F09FFCBAB2A2600020F8BD0748F8BD0748F8BD0648F8BD00BF7417081052
:400B80008C49020801008A003417081004028A0007028A0070B504460E461546072804D940F25F11084800F07DFC084B1B682C2202FB0434E369AB4204D9236A43F8256004
:400BC000002070BD024870BD741708108C4902080A028A0070B582B000230193044620B94FF4D971264800F05DFC236923B940F2B311234800F056FC636923B94FF4DA7163
:400C00001F4800F04FFC236A23B940F2B5111C4800F048FC6369DD682A0C1CD012041A601B6820690369002B15DA01A9FFF7C2FD60B9019803681E0CDBB2E269934206D299
:400C4000226A52F8233013B1984700E0002631462069FFF779FDADB275B16369ADB21D601B68636A1BB198470023636202E0A36A03B198470023A36163691B6802B070BD4F
:400C800074170810002800F0FF8038B50546002900F0FC800C460B78032B03D930217D4800F000FC6378032B03D93121794800F0F9FBA378032B03D93221764800F0F2FB5D
:400CC0002379032B03D93321724800F0EBFBA379012B03D934216F4800F0E4FBE379012B03D935216B4800F0DDFBE378012B03D93621684800F0D6FB6379022B03D93721CE
:400D0000644800F0CFFB237A022B03D93821614800F0C8FB237803F003016278930003F00C030B43A278120102F03002134322799201D2B21343A279920602F08062134317
:400D4000E279D20602F000621343E278120602F0807213436279120702F040521343227A43EA82732B60E3686B602369AB60237A012B07D013B1022B31D089E0E36AEB6093
:400D8000002038BD636903F50063B3F5805F03D35221404800F086FBA36903F50063B3F5805F03D353213B4800F07CFBE369013BFF2B03D95421374800F074FB6369C3F3A9
:400DC0000B02A369344901EA03331A43E369013B42EA0363EB60E36A2B61002038BD636903F50063B3F5805F03D36121294800F059FBA36903F50063B3F5805F03D362218A
:400E0000244800F04FFBE369013BFF2B03D96321204800F047FB236A03F50063B3F5805F03D364211B4800F03DFB636A03F50063B3F5805F03D36521164800F033FBA36A77
:400E4000013BFF2B03D96621124800F02BFB6269C2F30B01A269104B03EA02320A43E169013942EA0162EA60226AC2F30B02616A03EA01331343A26A013A43EA02632B6187
:400E8000E36A6B61002038BD04487047034838BD002038BDB417081000F0FF0001004E00214B984203D003F58053984234D10F2934D8002A34D01368002B33D070B516462C
:400EC0000D4604469368032B03D9B421174800F0E9FA326804EB4513C3F80C28337913B14FF4802200E00022B3681B0403F440331343327B12B14FF0004200E000221343DF
:400F0000727B0AB1042200E00022134305F1400149016350002070BD0548704704487047034870470248704700002840B417081001004E001F4B98422DD00CD840282ED0DB
:400F400003D8E8B1102828D02FE0802829D0B0F5807F28D029E0184B984228D006D8B0F1204F0DD0154B984212D01EE0144B98420AD00133984209D0023B984215D101E086
:400F8000002070470F4870470F4870470F4870474FF4A0007047074870470D4870470D4870470D487047034870470C4870474FF4A400704706005200010000F0090000A0CF
:400FC000040000F0010052000200520003005200010050000200500005005200FF00520008B50C4B1B69002B12DB0B4B1868FFF7A1FF0122094BC3F88C24084BD3F80C345A
:40100000002BFAD1054BD3F88C34002BF5D108BD034808BD2000234090490208000025400200500000B583B05523ADF80030002301930C496846FFF749FBBDF90030002BC2
:4010400008DB590903F01F03012202FA03F3064A42F82130022205490120FFF79BFD03B05DF804FB2143020800E100E041440208002800F0608130B4032840F09B800329C1
:4010800017D809B9072A0AD9012901D10F2A06D9022901D1032A02D903290AD14AB98B01D8B202F03F03034343F08043A248C0F80034032915D809B9072A0AD9012901D101
:4010C0000F2A06D9022901D1032A02D9032908D13AB98B01D8B202F03F0303439648C0F8DC3C01291CD859B9072A40D8924802F5007450F8243023F47F4340F8243036E0C8
:40110000012934D10F2A32D88B4802F5107450F8243023F47F0323F47F4340F8243026E0022913D1032A22D8834802F5207450F8243023F47F0323F47F4340F8243050F8E1
:40114000243023F0F80340F8243010E003290ED16AB9794B02F5307053F82040E4B243F8204053F8204024F0F80443F82040032900F2E08009B9072A0DD9012901D10F2A4A
:4011800009D9022901D1032A05D9032940F0D280002A40F0CF808B01DBB202F03F02134343F0004343F47F43634AC2F80034D2F80034BFE0032917D809B9072A0AD901298A
:4011C00001D10F2A06D9022901D1032A02D903290AD14AB98801C4B202F03F00204340F08040554CC4F80004032915D809B9072A0AD9012901D10F2A06D9022901D1032AE5
:4012000002D9032908D13AB98801C4B202F03F002043494CC4F8DC0C01292AD881B9072A6AD8FF2B68D8444C02F5007554F8250020F47F401B029BB2034344F825305BE010
:40124000012959D10F2A57D8B3F5803F54D23A4C02F5107554F8250020F47F0020F47F401B0223F07F4323F0FF03034344F8253042E0022923D1032A3ED8B3F5803F3BD276
:4012800002981F2838D82C4C02F5207554F8250020F47F0020F47F401B0223F07F4323F0FF03034344F8253054F8253023F0F800029BDB00DBB2034344F825301CE00329D4
:4012C0001AD1CAB9B3F1807F16D202981F2813D8194C02F5307554F82500C0B240EA032344F8253054F8253023F0F800029BDB00DBB2034344F8253003291BD809B9072ACA
:401300000AD9012901D10F2A06D9022901D1032A02D903290ED16AB98901C9B202F03F02114341F0004141F47F41034BC3F80014D3F8003430BC70470000014070B582B039
:401340000C46054618B94721534800F0ABF81CB94821514800F0A6F8002D00F09880002C00F097802378012B03D956214A4800F099F8636833B1B3F1807F03D05721464844
:4013800000F090F8237A042B03D95821424800F089F8638963B1B3F5807F09D0B3F5007F06D0B3F5407F03D059213B4800F07AF8E3687BB1B3F5800F0CD0B3F5400F09D029
:4013C000B3F1006F06D0B3F1086F03D05A21324800F068F8237C012B03D95B212E4800F061F8636933B1B3F1804F03D05C212A4800F058F8A3693F2B03D95D21264800F09C
:4014000051F8A36903F03F0263891343217A8A1ED2B2022A01D843F08053042901D143F000536268134362691A43E66816432378012B02D10023012201E001230022217CF7
:40144000012902D142F4807201E043F4807394F82410A962C5F8B020C5F8B430E369C3F30B03C5F80031236AC3F30B03C5F8043194F8253043B1E36AA26A94F82610207A78
:40148000246B0094FFF7F4FD2E60002002E0034800E0024802B070BD2C1808100100660001BEFEE738B50D46044C18220146204600F072F8A5610020FFF7F2FF3047020878
:4014C000FEE700BF08B50268254BDA6142681A6282685A62C2689A620269DA6242691A6382695A63C2699A631E4A916AD963D16A1964516A5964516B9964926BDA64F1EE43
:40150000103A13F0900F27D0026A154B1A65426A5A65826A9A65C26ADA65026B1A66426B5A66826B9A66C26BDA66026C1A67426C5A67826C9A67C26CDA67026DC3F8802082
:40154000426DC3F88420826DC3F88820C26DC3F88C20026EC3F89020FFF7B2FF08BD00BF3047020800ED00E00230800803D001300238FCD100BF00BF7047EFF3108072B68D
:40158000704780F31088704702440346934202D003F8011BFAE7704710B5034642B111F8014B03F8014B013A002CF7D11A4400E010BD934202D003F8014BFAE710BD00005A
:4015C000F8B500BFF8BC08BC9E467047F8B500BFF8BC08BC9E4670470300000001000000010000000000000005036000040000000100000000000000010000000604600010
:4016000008000000404902089D05081001000000000000000100000100004000010000000000000022000000000000000000000001000000000000000000000000000000EE
:4016400000000000000200000100000000000000000000000100000000000000640000000100000001000000010000006449020847656E6572617465645F536F75726365E9
:401680005C50536F43365C70646C5C647269766572735C7065726970686572616C5C737973696E745C63795F737973696E742E630000000047656E6572617465645F536F3C
:4016C000757263655C50536F43365C70646C5C647269766572735C7065726970686572616C5C6970635C63795F6970635F6472762E68000047656E6572617465645F536F79
:40170000757263655C50536F43365C70646C5C647269766572735C7065726970686572616C5C6970635C63795F6970635F6472762E63000047656E6572617465645F536F3D
:40174000757263655C50536F43365C70646C5C647269766572732F7065726970686572616C2F6970632F63795F6970635F6472762E68000047656E6572617465645F536F7F
:40178000757263655C50536F43365C70646C5C647269766572735C7065726970686572616C5C6970635C63795F6970635F706970652E630047656E6572617465645F536F5B
:4017C000757263655C50536F43365C70646C5C647269766572735C7065726970686572616C5C646D615C63795F646D612E63000047656E6572617465645F536F757263658D
:401800005C50536F43365C70646C5C647269766572735C7065726970686572616C5C646D615C63795F646D612E68000047656E6572617465645F536F757263655C50536F88
:4018400043365C70646C5C647269766572735C7065726970686572616C5C63746461635C63795F63746461632E6300000000000000000810004002088C020000901808103E
:401880008C420208A4040000C44702080C020000FF0700009A0F00009A0F0000B20C0000FF0700004C03000064000000640000004C0300000048E80100127A0000093D0000
:4018C00000127A0000127A0008000000401F00000000A00F02FF0000B10208108D0208100000000080B2C300B0B13E210B4A116041F61E7104321160A2F584720621C2F8F1
:40190000181523F07F43C2F81C35D2F81C35044BD3F81C35002BFADA704700BF040126400000264008B54FF26003404AD3589BB2A2F580229268013B032B76D8DFE803F0C6
:40194000021F3C59032A02D10822394B9A60394A13691069C0F307221B0E581C02FB0000354B03FB00F0354B1B68354AA2FB03239B09B0FBF3F08230FFF7B4FF08BD032AE9
:4019800002D108222A4B9A602A4A13691069C0F307221B0E581C02FB0000274B03FB00F0264B1B68264AA2FB03239B09B0FBF3F08230FFF797FF08BD032A02D108221C4B8F
:4019C0009A601C4A13691069C0F307221B0E581C02FB0000184B03FB00F0184B1B68184AA2FB03239B09B0FBF3F08230FFF77AFF08BD032A02D108220D4B9A600D4A136959
:401A00001069C0F307221B0E581C02FB00000A4B03FB00F0094B1B68094AA2FB03239B09B0FBF3F08230FFF75DFF08BD00002540A00023400000214040420F00B442020832
:401A4000D34D621008B54378FF2B0ED100F03AF9064BDB685A68136843F001031360136813F0010FFBD100F045F908BD80002340F8B505460E46264B1B69002B1FDB0020FF
:401A800000F050F9234B98421BD00023224A0121184600F03FF918B1204C15E0013400E00024002000F03EF91A4B984202D01C4B9C42F3D91A4B9C4205D9184C04E0174CEB
:401AC00002E0164C00E0002404BB00F0FBF80746144A0121144800F0FDF868B925B93046FFF700FF114C08E00F4B1B69002BFBDB00F008F9044600E0084C0121002000F0BF
:401B0000F1F80028F9D1384600F0F4F82046F8BDA000234001018800D042020805005200EF490200904902082000234001005000394B1B68002BFBDA30B4374BDA6842F083
:401B40000102DA60DB6813F0020F20D0324DEB689CB232490A69120A120402F47F02D1F890301B0A42EA03632343EB600B6923F47F4343F410630B61D1F8903023F47F4374
:401B800043F41063C1F890300B69D1F89030224B00225A605B68224A136943F004031361012801D030BF07E020BF1E4B1B7803B120BF01221B4B1A70184BD3F8803003F041
:401BC0000303022BE7D0144B1B68002BFBDA124BDB6813F0020F15D010490B6923F47F420D48C3681B0C1B0203F47F4313430B61D1F8903023F47F42C3681B0E42EA032395
:401C0000C1F89030044BDA6822F00102DA6000225A6030BC704700BFE00023400000214000ED00E0A04902081E4A136943F004031361012801D030BF07E020BF1A4B1B7870
:401C400003B120BF0122184B1A70184BD3F8803003F00303022BE7D0154B1B68002BFBDA144BD3F80C31C3B941F61E72124B1A60062203F582631A603E22A3F214431A605D
:401C8000442203F583631A600C4B1B68002BFBDA4FF0AA32074BC3F80C210022044B5A60704700BF00ED00E0A049020800002140E000234000002540080126401C052640D7
:401CC0000000000001B40248844601BC604700BF7B15081001B40248844601BC604700BF7907081001B40248844601BC604700BF9108081001B40248844601BC604700BF43
:401D00008315081001B40248844601BC604700BFE10F081001B40248844601BC604700BFE50A081001B40248844601BC604700BF19090810000000000000000000000000E6
:401D40000000000000000000000000000000000000000000000000000000000000000000000000000000000000000000000000000000000000000000000000000000000063
:401D80000000000000000000000000000000000000000000000000000000000000000000000000000000000000000000000000000000000000000000000000000000000023
:401DC00000000000000000000000000000000000000000000000000000000000000000000000000000000000000000000000000000000000000000000000000000000000E3
:0200000490303A
:02000000EFBF50
:0200000490501A
:0C0000000005E20721002101E21110BF01
:00000001FF