:020000041000EA
:4000000000400208310100100D000000950100100000000000000000000000000000000000000000000000000000000091010010000000000000000091010010910100109B
:4000400091010010A5040010910100109101001091010010910100109101001091010010910100109101001091010010910100109101001091010010910100109101001049
:400080009101001091010010910100109101001091010010910100109101001091010010910100109101001091010010910100109101001091010010910100109101001020
:4000C00010B5064C2378002B07D1054B002B02D0044800E000BF0123237010BD5404000800000000B4260010084B10B5002B03D00749084800E000BF07480368002B00D13A
:4001000010BD064B002BFBD09847F9E70000000058040008B4260010EC000008000000007047EFF3108072B6704780F310887047FFF7F6FF72B6104C104DAC4209DA2168BA
:400140006268A368043B02DBC858D050FAE70C34F3E70B490B4A0020521A02DD043A8850FCDC094809490860BFF34F8F00F000F900F01EF8FEE70000B8260010D0260010EE
:4001800054040008200600080000000808ED00E0FEE7FEE700B504207146084202D0EFF3098001E0EFF30880043001F04DFAFEE710B562B6014800F04FF9FEE700000810FC
:4001C00070B56249E0239B00CB580F2213401A00D0329200525807210A40032A05D0042A06D0002A12D15A4814E05A4A106811E01A00C0329200554952581F210A40112ABF
:4002000006D0132A04D0FA20C00103E0524801E080200002002B36D14C4BB222D2009A5801211140B125ED005A59120F032422405B591B0F1C4207D0444C63591B0F032458
:400240002340012B02D102E0012300E00023002B01D0002901D1032A4BD13C4BB022D2009D58AD03AD0B3D495958C904C90C9C58240E01231C40013401F070FA6843210070
:4002800001F06CFA35E0012B33D1304BC822D2009A5801251540C024E4001A59120F03210A401B591B0F194207D028490B591B0F03210B40012B02D102E0012300E00023EE
:4002C000002B01D0002D01D1032A12D11F4DC022D200AB587F210B40A958090A1F263140AC58240C3440584301F038FA210001F035FAE0239B00154AD3581B0903221340B0
:40030000D840144C6060164B1D692D0AFC32154001351969090E013101F020FAA060290001F01CFA0500E06020610E4BC0180E4901F014FA20750D4BE818FA21890001F0D9
:400340000DFAA061C003E06170BDC0460000264000127A00C000000800366E0184050000000021403F420F0040420F00E703000010B5234BB021C9005A58520052085A5015
:40038000E02080001A583024A2431A50802252045A501C491C4A9950A021890104329950FF211A4A995081315A58920092088020C00502435A505A588020000602435A5050
:4003C0005A58012082435A5000F0A2F9FFF7F8FE00F070F800F078F800F0D8FFB0235B055B78002B04D0B0235B055B78DBB200E02123212B03D1064B0022DA605A6010BDB5
:400400000000264001000200840500008C050000E00023408023024AD3580320184070470000214010B5FFF77CFE084980228C58074B2340074C23438B508823034AD358D1
:40044000DB06FAD5FFF771FE10BDC04600002140FCFF00000100FA0570B50500FFF761FE0400FFF7D7FF032801D1FFF7DBFF0A4AB0239B00D55080215058084B0340084806
:40048000034353508823044AD358DB06FAD52000FFF74BFE70BDC04600002140FCFF00000300FA0510B5024800F042FD10BDC0467004000810B5034A60328021042000F0A9
:4004C00027FB10BD7005000810B501F026F90400044800F0DDFB044800F044FC200001F020F910BD70040008D4180010FEE7C046F0B50025002711E0BB00C658F3B2FF224C
:40050000964308E06A008A181478A419527822700135013BDBB2002BF4D10137012FEBD9F0BDC04630B587B05C4BA021C9005A58032082435A505A4990240A59594802404D
:400540000A510A691202120A8024640422430A610A6910400861E022920099580F20814399509958213081439950995880200006014399500021012000F03CFD00210220B3
:4005800000F038FD0021032000F034FD0021042000F030FD0021002000F02CFD01A8424903000A0032CA32C312CA12C300F04AFD002802D00420FFF799FF38493B4A8B5846
:4005C0008020000603438B50394800F0F5FD002802D00420FFF78AFF304C364BE158364A0A40E250E158354A0A40E250E25880252D062A43E250043BE158314A0A40E250AE
:40060000E158304A0A40802189010A43E250E258802109020A43E2502B4A11682B4B0B40802149000B431360002001F07DF8284BE2581543E550E158012291430A43E250E5
:400640006421002001F018F8224B4121224A995022481958224A1140224C214319508021C9002148585058584225C52000011D501E4D58591040204358511D4858505858C3
:4006800040251C481D50902000011D582A4022431A50194A5A505B5807B030BD0000264000002140FF00FFFF08190010087F0000400D030004050000FEFCFFFFFFFF00FF77
:4006C000FFF0FFFFFF8FFFFF00002740FFFCFFFF0C050000000001404C0C000004090000FF0000FF004FC30041FF00800809000042FF0080540C000040FF008010B50A00DA
:40070000002101F0C0F810BD10B501F0B3F810BD70B58AB09621002000F0AEFF00F084FF002801D100F070FF012000F0EFFE3F4A516C3F4B0B40E82189010B435364536CE5
:400740001B0AFF2213403A2B07D1384A516C394B0B40E82189010B435364FFF7E3FE364A364B1A6000240CE0620012195300344AD318198B9A8AD88A00041043FFF7BEFF1E
:4007800001340B2CF0D900240AE06200121993002B4AD3185A6E196ED86DFFF7B5FF0134112CF2D9274D2900343128003C30FFF79FFE254A1368812149000B43136001AC8F
:4007C00022002B00443343CB43C243CB43C243CB43C221001D4800F0E3FD22002B00683343CB43C243CB43C243CB43C22100184800F0D6FD2200174B0C3343CB43C243CB5D
:4008000043C243CB43C22100134800F0C9FD22002B00683323CB23C223CB23C223CB23C221000E4800F0BCFD0AB070BD00002740FF00FFFFFFC5FFDF0300FA05F0012140AC
:4008400008190010081A0010007934400000324080003240881A0010000332408005324010B583089A00801AC000FF228240D44381400A40072B32D89B001949CB589F461C
:40088000184B196A0C4022431A6228E0154B596A0C4022435A6222E0124B996A0C4022439A621CE00F4BD96A0C402243DA6216E00C4B196B0C4022431A6310E0094B596BF1
:4008C0000C4022435A630AE0064B996B0C4022439A6304E0034BD96B0C402243DA6310BDE82300100000214083089A00801AC100FF228A40072B2BD89B001748C3589F4656
:40090000164B186A1040C84023E0144B586A1040C8401EE0114B986A1040C84019E00F4BD86A1040C84014E00C4B186B1040C8400FE00A4B586B1040C8400AE0074B986B9B
:400940001040C84005E0054BD86B1040C84000E00020C0B27047C046082400100000214070B504000D000B4B9A680B4B9A420BD1002903D1FC21094800F038FE1034064BC1
:40098000A400E058E55003E01034A400044BE05870BDC04600ED00E0000000082824001000000010F0B583B0041E019150D04368032B03D93621294800F018FE0023E05ED0
:4009C000002802DBA178FFF74BFF0023E25E6368002A12DB9008224EC0308000875903210A40D200FF25290091408F4399012B000B4093403B43835117E092B20F211140DB
:400A000008398908063189001648844661444E6803200240D200FF2738009040864398013B000340934033434B600E4B9A680E4B9A420FD1019B002B03D14521074800F0B8
:400A4000D5FD0023E05E0199FFF78AFF002002E0064800E0002003B0F0BDC0462824001000E100E000ED00E0000000080100560070B504000D000369002B0ADA0B0C03D090
:400A80000549064800F0B2FD2D042D0C6560002000E0034870BDC046A70200006C24001001008A0070B505000C000368002B01DA002300E0084B002B0BD1EA60230C03D02A
:400AC0000649074800F092FD2404240CAC60002000E0014870BDC04601008A008E0200006C24001070B505000C1E03D19921064800F07CFD2B69002B03DAEB682360002013
:400B000000E0024870BDC046AC24001001008A00F8B504000E0015000F283FD8002A10D100290ED10F2804D99E21FF31214800F05DFD6401204B9C466444204B1C600020A1
:400B400037E0002D2CD0002E2CD0F3062CD10F2C04D99E21FF31174800F048FD6401164B9C466444154F3C607E60BD60F2080021280000F088FE00212000FFF779FF3A008D
:400B800001CA0021FFF78EFF00280FD10B4B18680021FFF76DFF00280AD10AE0084808E0074806E0064804E0054802E0054800E00448F8BDEC2400100000234000060008EB
:400BC00003018A0001018A00F0B583B00D001C4B1B68DC68236883422DD947097B01C01A012383401E00002903D100F096FD019001E000230193124B18680368002B01DAD0
:400C0000002300E00F4B002B0ED16368BF00DF193B68334203D0B3433B60002400E00A4C0021FFF725FF00E0084C002D04D1019800F077FD00E0064C200003B0F0BDC046CF
:400C40000006000801008A00020188000301880004018A000A4B1B68DA68136883420BD943095901401A0121814052689B009B580B4203D0034802E0034800E00348704752
:400C8000000600080101880004018A0000018800034B1B68002B01D1014B18607047C0460C060008F0B5474680B404000F0090461E00072803D9B421254800F097FC254B6E
:400CC0001B682C2060431C18FF22150035402560330A13406360330CA3600F2D04D99E21FF311D4800F082FC6B011C4A94466344236165680F2D04D9DC214900164800F05D
:400D000075FC6D01164B9C4665446561A668330C04D0EB214900104800F068FC330C04D0D821FF310C4800F061FC3604330C1E43AE604346E36127620023A361069B002BF2
:400D400002D000229B5EA38104BC9046F0BDC0462C2500100C060008EC2400100000234000102340F0B58FB0041E03D150212E4800F03CFC6368032B03D952212A4800F015
:400D800035FCE36A002B03D15621274800F02EFCE368072B03D95721234800F027FC236A072B03D95821204800F020FC236B002B03D159211C4800F019FC07AA130021008A
:400DC00061C961C321C921C302AD290023001433C1CBC1C141CB41C10821535E0CAE3380079B1933B370089B0D930B9B0A980096A26AE16AFFF756FF2B69E86800220092C6
:400E00000021FFF74FFF216B3000FFF7CBFD0023F25E002A05DB1F231A401E3B9340034A13600FB0F0BDC0462C25001000E100E0F8B505000F0016001C00002A03D1FC212C
:400E4000244800F0D3FB072D03D9FD21214800F0CDFB072F03D9FE211E4800F0C7FB1E4B1B682C2128004843181879435918012213004D68AB401B044568AA40150002695B
:400E8000002A20D08F69002F1FD11268002A01DA002200E0114A002A19D132681204120C134333600369DE6001238B614C6204692B0C03D00A490B4800F098FB2A04120C06
:400EC000A260002004E0084802E0084800E00748F8BDC0462C2500100C06000801008A008E020000EC24001004028A0007028A0070B505000C001600072804D96021FF319E
:400F0000084800F073FB084B1B682C2068431818C369B34204D9036AB6009C51002000E0024870BD2C2500100C0600080A028A0070B582B0040000230193002804D1D92167
:400F400049002B4800F052FB2369002B04D1B421FF31274800F04AFB6369002B04D1DA214900234800F042FB236A002B04D1B621FF311F4800F03AFB6269D5682B0C1FD04D
:400F80001B041360136820690369002B18DA01A9FFF7A8FD00280ED1019803681E0CFF221340E269934207D29B00226AD358002B02D0984700E0002631002069FFF758FDF2
:400FC0002D042D0C0FD063691D601B68636A002B03D098470023636203E0A36A002B00D098470023A36163691B6802B070BDC0462C25001004281DD8042904D94B1EFF3BF6
:401000009BB2132B18D8FF290CD91F2319400B4A0300C0339B009950D03080000423835000200AE007231940D0308000034BC150002002E0024800E0014870470000264046
:4010400001004A0070B5041E04D1EF2149004C4800F0CCFAB023DB004A4AD358002B01DB002500E0484D002D00D086E0474B22689A4204D9EE21FF31414800F0B7FA23682C
:401080009B03990BE3791B068022520413400B43B022D2003B498B50A2883D4B9A4204D9FA214900364800F0A1FA2289394B9A4204D9F621FF31324800F098FAA388DB04C8
:4010C000D90C23891B04344A13400B43334A2D498B50A37A0F2B04D9FC21FF31284800F085FAE37A0F2B04D9FE214900244800F07DFAA289264B9A4204D9FE21FF31204838
:4011000000F074FAA37A0F211940E27A1201FF2313400B43A289120221490A401343A27B1207C02189050A401343B122D20015498B50A379072B03D91A49114800F056FAE7
:40114000228A144B9A4203D917490D4800F04EFA0C4816494658164B1E40A3791B02E022D2001340334343504658124B1E40238A1B04094A134033434350280070BDC04617
:401180006C2500100000264003004A00FFFF0300FF1F0000FF0100000000FF018405000000FF1F0005020000060200008C050000FFF8FFFFFFFF00FE70B505002D492E4A6C
:4011C0008B588020000603438B502C0003E0012000F000FA013CB223DB00264AD3585B0701D4002CF3D12349B122D2008858234B03408020800503438B50002D02D00ED0B7
:40120000002C0CD01B49B022D2008B588020000603438B5003E0012000F0DCF9013CB223DB00144AD358DB0701D4002CF3D1002D0ED0002C0CD10F4AB021C90053585B0001
:401240005B0853500C4953585B005B0853500BE0084B0221B222D2009950B121C9005A58C020800502435A50002C01D1044800E0002070BD000026408C050000FFFFFFCF3C
:4012800002004A00214B984230D00ED8402831D004D800281FD010282AD031E080282BD080235B00984229D02AE0194B984229D007D8A0231B0698420DD0164B984212D0CB
:4012C0001EE0154B98420AD0144B984209D0144B984215D101E0002016E0124814E0124812E0124810E0A020C0030DE007480BE00F4809E00F4807E00F4805E0034803E03E
:401300000E4801E0A420C0037047C04606005200010000F0090000A0040000F0050000F0030000F0010052000200520003005200010050000200500005005200FF0052001D
:4013400010B50C4B1B69002B11DB0B4B1868FFF799FF0121094B0A4AD150084B084AD358002BFAD1074BD358002BF6D100E0064810BDC04600002340100600080C040000A0
:40138000000025408C0400000200500010B5022202490020FFF7ACFD10BDC0463501000870B505000C00002848D0002948D0FF230A689A4303D08D21224800F017F9FF23AD
:4013C00022699A4303D08E211E4800F00FF9A3685B0D03D08F211B4800F008F963685B0A03D09021174800F001F9E3695B0F03D09121144800F0FAF8236A5B0F03D0922168
:40140000104800F0F3F8104BEB18DB090F4A944663441B0122682A60E268AA622269EA6262692A63A2686A626268AA61A2696A63E2691A60226A5A60002002E0044800E0EC
:40144000034870BDF42500100000CEBF0010030401005A00034A9369802149040B4393617047C04600F02540024A9169024B0B409361704700F02540FFFFFFFE10B5074A52
:40148000074813580F24A34302210B43135004381358A3431943115010BDC0460000214004F0000010B5074A074813580F24A34303210B43135004381358A343194311500B
:4014C00010BDC0460000214004F000000449054A8858054B0340C020C00103438B5070470000214004F00000FF8FFFFF0449054A8858054B03408020C00103438B50704713
:401500000000214004F00000FF8FFFFF70B50500012803D92A492B4800F068F800F0FDF80400294B294AD3581F221340E822D200B02149058A5CD31A5A1E9341DBB29D4250
:4015400039D0002D14D1FFF785FFFFF797FF1F481D4943581F229343143A13434350FFF7B5FFE823DB00B0225205D35CDAB211E01648154943581F229343143A134343508A
:40158000092000F027F8FFF7B1FF114BB0225205D35CDAB20D4E0C4831581F23994313400B433350012D06D1092000F013F8FFF779FFFFF759FF200000F0B3F870BDC046C0
:4015C000ED060000742600101CFF0000000026404107000010B5034B1B78584300F094F810BDC046D400000801BEFEE770B50D00044C18220100200000F04DF9A56100203C
:40160000FFF7F2FF18040008054B802212069A649B6C002B01DB002000E002487047C0460000274003004600054B8022120198585B68FF221A4202D08023DB021843704739
:4016400000002640FEE7C04610B50A4B0268DA6142681A6282685A62C2689A620269DA6242691A6382695A63C2699A63FFF7EAFF10BDC04618040008F0B5002801D019221A
:4016800000E064228A42924152421C4BE8256D005C590327BC433A4014435C515C59184E34405C51D03D5C59BC4322435A515A5916405E51002805D010290DD921290DD844
:4016C000012014E01D290BD93A290BD957290BD978290BD803200AE0002008E0022006E0002004E0012002E0022000E00420054A13680F218B4303431360F0BD00002140A3
:40170000FFFCFFFF000025400230800803D001300238FCD1C046C0467047EFF3108072B6704780F310887047042805D1094A116804230B4313600CE00006C0239B0418402E
:4017400090239B00044AD050024A136804218B431360704710E000E000002140002243088B4274D303098B425FD3030A8B4244D3030B8B4228D3030C8B420DD3FF2209025D
:4017800012BA030C8B4202D31212090265D0030B8B4219D300E0090AC30B8B4201D3CB03C01A5241830B8B4201D38B03C01A5241430B8B4201D34B03C01A5241030B8B4235
:4017C00001D30B03C01A5241C30A8B4201D3CB02C01A5241830A8B4201D38B02C01A5241430A8B4201D34B02C01A5241030A8B4201D30B02C01A5241CDD2C3098B4201D3EE
:40180000CB01C01A524183098B4201D38B01C01A524143098B4201D34B01C01A524103098B4201D30B01C01A5241C3088B4201D3CB00C01A524183088B4201D38B00C01A48
:40184000524143088B4201D34B00C01A5241411A00D20146524110467047FFE701B5002000F006F802BDC0460029F7D076E770477047C046002310B59A4203D0CC5CC45416
:401880000133F9E710BD03008218934202D019700133FAE77047030030B5002A0DD00C7801335D1E013A2C700131002CF5D19A189A4202D01C700133FAE730BDF8B5C046F0
:4018C000F8BC08BC9E467047F8B5C046F8BC08BC9E46704703000000010000000100000000000000050360000400000001000000000000000100000006046000080000002A
:40190000E0050008A5040010F4010000140004010A0009050800000063010000002034407400802034407400002234407400802234407400002434407400802434407400B3
:40194000002634407400802634407400002834407400802834407400002A34407400802A3440740000213440B81A00109000000000233440481B001090000000002534404D
:40198000D81B00109000000000273440681C00109000000000293440F81C001090000000002B3440881D00109000000000603440181E00107C00000080603440941E0010F4
:4019C0007C00000000613440101F00107C000000806134408C1F00107C00000000623440082000107C00000080623440842000107C00000000633440002100107C000000BB
:401A0000806334407C2100107C00000000643440F82100107C00000080643440742200107C00000000653440F02200107C000000806534406C2300107C000000281568514E
:401A4000280800000270344001723440080000000000000000000000006000000000000000000000000000000000000300000000020000000000000000000000600000009C
:401A80000000000000000000000000000003000000000000000000000000000000000000000000BA0000000000000000000000000000000000001D1D00000000000000002F
:401AC00000000000FFFFFFFFFFFFFFFFFFFFFFFFFFFFFFFFFFFFFFFFFF000000FFFFFFFFFFFFFFFFFFFFFFFFFFFFFFFFFFFFFFFFFF00000000000000000000000000000010
:401B0000000000000000000000000000FFFFFFFFFFFFFFFFFFFFFFFF1111111111111111111111111111111111111111111111111111111111111111111111111111111109
:401B40001111111111111111000000000000000000000000FFFFFFFFFFFFFFFFFFFFFFFFFFFFFFFFFFFFFFFFFF000000FFFFFFFFFFFFFFFFFFFFFFFFFFFFFFFFFFFFFFFF06
:401B8000FF000000000000000000000000000000000000000000F00000000000FFFFFFFFFFFFFFFFFFFFFFFF111111111111111111111111111111111111111111111111AA
:401BC000111111111111111111111111111111111111111111111111000000000000000000000000FFFFFFFFFFFFFFFFFFFFFFFFFFFFFFFFFFFFFFFFFF000000FFFFFFFF66
:401C0000FFFFFFFFFFFFFFFFFFFFFFFFFFFFFFFFFF000000000000000000000000000000000000000000000000000000FFFFFFFFFFFFFFFFFFFFFFFF111111111111111139
:401C400011111111111111111111111111111111111111111111111111111111111111111111111111111111000000000000000000000000FFFFFFFFFFFFFFFFFFFFFFFFC8
:401C8000FFFFFFFFFFFFFFFFFF000000FFFFFFFFFFFFFFFFFFFFFFFFFFFFFFFFFFFFFFFFFF000000000000000000000000000000000000000000000000000000FFFFFFFF46
:401CC000FFFFFFFFFFFFFFFF1111111111111111111111111111111111111111111111111111111111111111111111111111111111111111111111110000000000000000BC
:401D000000000000FFFFFFFFFFFFFFFFFFFFFFFFFFFFFFFFFFFFFFFFFF000000FFFFFFFFFFFFFFFFFFFFFFFFFFFFFFFFFFFFFFFFFF000000000000000000000000000000CD
:401D4000000000000000000000000000FFFFFFFFFFFFFFFFFFFFFFFF11111111111111111111111111111111111111111111111111111111111111111111111111111111C7
:401D80001111111111111111000000000000000000000000FFFFFFFFFFFFFFFFFFFFFFFFFFFFFFFFFFFFFFFFFF000000FFFFFFFFFFFFFFFFFFFFFFFFFFFFFFFFFFFFFFFFC4
:401DC000FF000000000000000000000000000000000000000000000000000000FFFFFFFFFFFFFFFFFFFFFFFF11111111111111111111111111111111111111111111111158
:401E000011111111111111111111111111111111111111111111111100000000000000001F1F1F1F1F1F1F1F1F1F1F1F1F1F1F1F071F1F1F1F1F1F1F1F1F1F1F1F1F1F1F42
:401E4000000000000000000000000000000000000000000000000000FFFFFFFFFFFFFFFFFFFFFFFF1111111111111111111111111111111111111111111111511111111152
:401E8000111111111111111111111111111111111111114100000000000000001F1F1F1F1F1F1F1F1F1F1F1F1F1F1F1F031F1F1F1F1F1F1F1F1F1F1F1F1F1F1F00000000DA
:401EC0000000000000000000000000000000100000000000FFFFFFFFFFFFFFFFFFFFFFFF11111111111161111111111111111111111111111111110111111111111111117E
:401F00001111111111111111111111111111111100000000000000001F1F1F1F1F1F1F1F1F1F1F1F1F1F1F1F1F1F1F1F1F1F1F1F1F1F1F1F1F1F1F1F0000000000000000B1
:401F400000000000000000000000000000000000FFFFFFFFFFFFFFFFFFFFFFFF11111111111111111111111111111111111111111111111111111111111111111111111109
:401F800011111111111111111111111100000000000000001F1F1F1F1F1F1F1F1F1F1F1F1F1F1F1F1F1F1F1F1F1F1F1F1F1F1F1F1F1F1F1F00000000000000000000000075
:401FC000000000000000000000000000FFFFFFFFFFFFFFFFFFFFFFFF1111111111111111111111111111111111111111111111111111111111111111111111111111111145
:40200000111111111111111100000000000000001F1F1F1F1F1F1F1F1F1F1F1F1F1F1F1F1F1F1F1F1F1F1F1F1F1F1F1F1F1F1F1F0000000000000000000000000000000038
:402040000000000000000000FFFFFFFFFFFFFFFFFFFFFFFF111111111111111111111111111111111111111111111111111111111111111111111111111111111111111180
:402080001111111100000000000000001F1F1F1F1F1F1F1F1F1F1F1F1F1F1F1F1F1F1F1F1F1F1F1F1F1F1F1F1F1F1F1F0000000000000000000000000000000000000000FC
:4020C00000000000FFFFFFFFFFFFFFFFFFFFFFFF111111111111111111111111111111111111111111111111111111111111111111111111111111111111111111111111BC
:4021000000000000000000001F1F1F1F1F1F1F1F1F1F1F1F1F1F1F1F1F1F1F1F1F1F1F1F1F1F1F1F1F1F1F1F000000000000000000000000000000000000000000000000BF
:40214000FFFFFFFFFFFFFFFFFFFFFFFF111111111111111111111111111111111111111111111111111111111111111111111111111111111111111111111111000000003B
:40218000000000001F1F1F1F1F1F1F1F1F1F1F1F1F1F1F1F1F1F1F1F1F1F1F1F1F1F1F1F1F1F1F1F000000000000000000000000000000000000F00000000000FFFFFFFF53
:4021C000FFFFFFFFFFFFFFFF111111111111D111111111111111111111111111111111111111111111111111111111111111111111111111111111110000000000000000F7
:402200001F1F1F1F1F1F1F1F1F1F1F1F1F1F1F1F1F1F101F1F1F1F1F1F1F1F1F1F1F1F1F000000000000000000000000000000000000000000000000FFFFFFFFFFFFFFFFD5
:40224000FFFFFFFF111111111111F1111111111111111111111111111111111111111111111111111111111111111111111111111111111100000000000000001F1F1F1FD6
:402280001F1F1F1F1F1F1F1F1F1F1F1F1F1F1F1F1F1F1F1F1F1F1F1F1F1F1F1F000000000000000000000000000000000000000000000000FFFFFFFFFFFFFFFFFFFFFFFFC6
:4022C00011111111111111111111111111111111111111111111111111111111111111111111111111111111111111111111111100000000000000001F1F1F1F1F1F1F1FB6
:402300001F1F1F1F1F1F1F1F1F1F1F1F1F1F1F1F1F1F1F1F1F1F1F1F000000000000000000000000000000000000000000000000FFFFFFFFFFFFFFFFFFFFFFFF111111117D
:40234000111111111111111111111111111111111111111111111111111111111111111111111111111111111111111100000000000000001F1F1F1F1F1F1F1F1F1F1F1FFD
:402380001F1F1F1F1F1F1F1F1F1F1F1F1F1F1F1F1F1F1F1F000000000000000000000000000000000000000000000000FFFFFFFFFFFFFFFFFFFFFFFF111111111111111135
:4023C00011111111111111111111111111111111111111111111111111111111111111111111111111111111800800108C08001098080010A4080010B0080010BC080010F1
:40240000C8080010D4080010000900100A090010140900101E09001028090010320900103C0900104609001047656E6572617465645F536F757263655C50536F43365C70DE
:40244000646C5C647269766572735C7065726970686572616C5C737973696E745C63795F737973696E742E630000000047656E6572617465645F536F757263655C50536F04
:4024800043365C70646C5C647269766572735C7065726970686572616C5C6970635C63795F6970635F6472762E68000047656E6572617465645F536F757263655C50536FAB
:4024C00043365C70646C5C647269766572735C7065726970686572616C5C6970635C63795F6970635F6472762E63000047656E6572617465645F536F757263655C50536F70
:4025000043365C70646C5C647269766572732F7065726970686572616C2F6970632F63795F6970635F6472762E68000047656E6572617465645F536F757263655C50536FB1
:4025400043365C70646C5C647269766572735C7065726970686572616C5C6970635C63795F6970635F706970652E630047656E6572617465645F536F757263655C50536F8D
:4025800043365C70646C5C647269766572735C7065726970686572616C5C737973636C6B5C63795F737973636C6B2E630000000047656E6572617465645F536F757263650E
:4025C0005C50536F43365C70646C5C647269766572735C7065726970686572616C5C737973636C6B5C63795F737973636C6B2E680000000047656E6572617465645F536F0A
:40260000757263655C50536F43365C70646C5C647269766572735C7065726970686572616C5C6770696F5C63795F6770696F2E630000000047656E6572617465645F536FF3
:40264000757263655C50536F43365C70646C5C647269766572735C7065726970686572616C5C6770696F5C63795F6770696F2E680000000047656E6572617465645F536FAE
:40268000757263655C50536F43365C70646C5C647269766572735C7065726970686572616C5C737973706D5C63795F737973706D2E630000000000000000001000000008F1
:4026C000C0000000D8260010C00000085803000054040008CC0100000048E80100127A0000093D0000093D0000093D0004000000A00F00000000D00702FF0000E9000010A9
:40270000C1000010000000000004400B12D03E22094B1A60094A0A4B1A600A4B0621A322D2009950084A98509B58074B054AD358002BFADA7047C046040126401E1F0000EE
:4027400008012640000026401C05000010B54378FF2B0DD100F02CF9064BDB685A68116801230B4313601368DB07FCD400F048F910BDC04680002340F0B583B006000F0011
:4027800000F036F90500032824D12B4B1B69002B22DB002000F014F9284B98421ED00023274A0021012000F03BF9002803D0254C17E0013400E00024002000F001F91F4B51
:4027C000984202D0204B9C42F3D91F4B9C4207D91C4C06E0002404E01A4C02E0194C00E00024002C24D100F0E3F80190174A0121174800F0EDF800280ED1002E04D1380073
:40280000FFF782FF134C08E0114B1B69002BFBDB00F0E6F8040000E00A4C032D05D10121002000F0F5F80028F9D1019800F0E8F8200003B0F0BDC046C0002340010188003E
:40284000E000000805005200EF49020010060008000023400100500070B5304B1B68002BFBDA2E4BD96802220A43DA60DB68DB071FD52A4EF2681204150C294B1A69120A50
:402880001204FF2424042240110090241A59120A12060A432A43F2601969224A114090252D012943196119590A402A431A511A691B591A4B00225A605B681B4A1169042340
:4028C0000B431361012801D030BF00E020BF134B1B68002BFBDA114BDB68DB0715D510480269104B1A4014000C4DEA68120C1202FF2109020A4022430261902142581340DE
:40290000EA68120E120213434350044BDA6802218A43DA6000225A6070BDC046E000234000002140FF00FFFF00ED00E0164A116904230B431361012801D030BF00E020BF85
:40294000124B1B68002BFBDA86235B00104AD358002B14D10F4A104B1A6006220F4B1A6038320F4B1A6006320E4B1A600D4B1B68002BFBDA0C4986235B00054AD1500022A5
:40298000024B5A607047C04600ED00E0E0002340000025401E1F00000801264018052640040126401C052640AAAAAAAA0000000001B40248844601BC604700BF1B170010E7
:4029C00001B40248844601BC604700BF550C001001B40248844601BC604700BFA50A001001B40248844601BC604700BF4113001001B40248844601BC604700BF150400106A
:402A000001B40248844601BC604700BF2317001001B40248844601BC604700BFC90B001001B40248844601BC604700BF310E00100000000000000000000000000000000055
:402A40000000000000000000000000000000000000000000000000000000000000000000000000000000000000000000000000000000000000000000000000000000000056
:402A80000000000000000000000000000000000000000000000000000000000000000000000000000000000000000000000000000000000000000000000000000000000016
:402AC00000000000000000000000000000000000000000000000000000000000000000000000000000000000000000000000000000000000000000000000000000000000D6
:402B00000000000000000000000000000000000000000000000000000000000000000000000000000000000000000000000000000000000000000000000000000000000095
:402B40000000000000000000000000000000000000000000000000000000000000000000000000000000000000000000000000000000000000000000000000000000000055
:402B80000000000000000000000000000000000000000000000000000000000000000000000000000000000000000000000000000000000000000000000000000000000015
:402BC00000000000000000000000000000000000000000000000000000000000000000000000000000000000000000000000000000000000000000000000000000000000D5
:0200000490303A
:020000007D631E
:0200000490501A
:0C0000000005E20721002101E2139E63CD
:00000001FF