:020000041008E2
:4000000000780408F90208100D00000061030810610308106103081061030810000000000000000000000000000000005D0308105D030810000000005D0308105D0308104C
:400040005D0308105D0308105D0308105D0308105D0308105D0308105D0308105D0308105D0308105D0308105D0308105D0308105D0308105D0308105D0308105D03081000
:400080005D0308105D0308105D0308105D0308105D0308105D0308105D0308105D0308105D0308105D0308105D0308105D0308105D030810E50708105D0308105D03081034
:4000C0005D0308105D0308105D0308105D0308105D0308105D0308105D0308105D0308105D0308105D0308105D0308105D0308105D0308105D0308105D0308105D03081080
:400100005D0308105D0308105D0308105D0308105D0308105D0308105D0308105D0308105D0308105D0308105D0308105D0308105D0308105D0308105D0308105D0308103F
:400140005D0308105D0308105D0308105D0308105D0308105D0308105D0308105D0308105D0308105D0308105D0308105D0308105D0308105D0308105D0308105D030810FF
:400180005D0308105D0308105D0308105D0308105D0308105D0308105D0308105D0308105D0308105D0308105D0308105D0308105D0308105D0308105D0308105D030810BF
:4001C0005D0308105D0308105D0308105D0308105D0308105D0308105D0308105D0308105D0308105D0308105D0308105D0308105D0308105D0308105D0308105D0308107F
:400200005D0308105D0308105D0308105D0308105D0308105D0308105D0308105D0308105D0308105D0308105D0308105D0308105D0308105D0308105D0308105D0308103E
:400240005D0308105D0308105D0308105D0308105D0308105D0308105D0308105D0308105D0308105D0308105D0308105D0308105D0308105D0308105D0308105D030810FE
:400280005D0308105D0308105D03081010B5054C237833B9044B13B10448AFF300800123237010BD9C47020800000000A4180810084B10B51BB108490848AFF3008008487C
:4002C000036803B910BD074B002BFBD0BDE81040184700BF00000000A0470208A4180810B8420208000000007047EFF3108072B6704780F310887047FFF7F6FF72B6114CAC
:40030000114DAC4209DA21686268A368043BA2BFC858D050FAE70C34F3E70C490C4A00209142BCBF41F8040BFAE70A480A490860BFF34F8F00F042FA00F01CFA00F07AF8E2
:40034000FEE70000A8180810C01808109C470208C84902080040020808ED00E0FEE7FEE700B504207146084202D0EFF3098001E0EFF30880043001F075F8FEE70C4B01228C
:40038000C3F83021D3F830310A4BB3F90030002B09DB5A0903F01F03012101FA03F36032054941F822300122044B1A70704700BF000038400816081000E100E0B8470208E5
:4003C00010B5054C054A0649204600F0CBFD236843F00043236010BD00006640904902085C16081010B50E4C0E4A0021204600F019FD0123A360A3610B4C0C49204600F096
:4004000035FAB4F90030002B08DB590903F01F03012202FA03F3064A42F8213010BD00BF0000384010160810081608107D03081000E100E008B5FFF7C3FF62B6614C624985
:40044000204600F077FD6149204600F073FDFFF7C9FF5C4BD3F84033672B3ED0722B02D0622BF6D173E00122594B5A600822594B9A600223584A936002F5A062936027E0F3
:400480004FF4FA7000F0C4FF524C082565604FF4FA7000F0BDFFA5604A4BD3F84033622B0FD002D80D2B10D012E0672B05D0722B0ED10022464B5A600AE00022444B5A6026
:4004C00006E00022424B5A6002E00022404B5A603F4B5B68012BD3D0BBE701223C4B5A6008223C4B9A6002233B4A936002F5A062936027E04FF47A7000F08AFF364C0225B8
:4005000065604FF47A7000F083FFA5602D4BD3F84033622B0FD002D80D2B10D012E0672B05D0722B0ED10022294B5A600AE00022274B5A6006E00022254B5A6002E00022AB
:40054000234B5A60224B5B68012BD3D081E701221F4B5A6008221F4B9A6002231E4A936002F5A062936027E04FF4967000F050FF1A4C022565604FF4967000F049FFA56044
:40058000104BD3F84033622B0FD002D80D2B10D012E0672B05D0722B0ED100220C4B5A600AE000220A4B5A6006E00022084B5A6002E00022064B5A60054B5B68012BD3D01B
:4005C00047E700BF000066407815081094150810B8470208000032408000324080053240704700BF5C4AD2F8803303F00F0303F1D00152F8212002F00702032A04D0042A86
:4006000005D092B9554914E0554A116811E003F1C002514951F8222002F01F02112A06D0132A04D04FF4FA4103E04E4901E04FF400418BBB484BD3F8902502F00100D3F87B
:400640008825C2F30172D3F8883513F0405F07D0414BD3F88835C3F30173012B02D102E0012300E0002303B108B9032A46D13A48D0F88025C2F31103D0F88425C2F30C02B9
:40068000D0F88005C0F300600130B1FBF2F202FB03F2B2FBF0F131E0012B2FD12E4BD3F8402602F00100D3F80026C2F30172D3F8003613F0405F07D0274BD3F80036C3F303
:4006C0000173012B02D102E0012300E0002303B108B9032A12D12048D0F8002602F07F02D0F80036C3F30423D0F80006C0F3044002FB01F2B2FBF3F2B2FBF0F1164BD3F854
:400700008033C3F3011321FA03F215494A601648D0F89030C3F3072301330069000E0130B2FBF0F08860B2FBF3F3CB600B6103F5742202F23F220D48A0FB0202C2F387428E
:400740000A7503F2E7330A4AA2FB03239B098B61DB03CB61704700BF0000264000127A008C42020800366E010000214083DE1B43D34D621008B5104BD3F8802122F040428B
:4007800042F08042C3F88021D3F8802142F00042C3F88021D3F8802122F00102C3F88021FFF71EFFFFF71EFF00F024F800F02AF800F008FE08BD00BF0000264008B5FFF7F9
:4007C00094FD074AD2F8883043F47003C2F88830BFF34F8FBFF36F8FFFF78BFD08BD00BF00ED00E008B5024800F0C4FA08BD00BFEC47020808B500221146042000F0C0F8F2
:4008000008BD00BF10B500F088FE0446044800F073F9044800F0D4F9204600F082FE10BDC0470208D415081038B50C4B9A680C4B9A420ED10D46044619B9FC21094800F024
:4008400001FE04F11003064A52F8230042F8235038BD1030044B53F8200038BD00ED00E0004002089C1608100000081070B338B504460D464368072B03D93621154800F020
:40088000E1FDB4F900306268002B08DB5201D2B203F1604303F5614383F8002305E003F00F035201D2B20C49CA540C4B9A680C4B9A420DD11DB94521064800F0C3FD2946B6
:4008C000B4F90000FFF7B0FF002038BD05487047002038BD9C16081014ED00E000ED00E0004002080100560038B50369002B0DDA0D4604460B0C1B0423B140F2A721044807
:4009000000F0A0FDA9B26160002038BD014838BDE016081001008A0038B50368002B01DA002300E0094B73B90D460446C2600B0C1B0423B140F28E21054800F083FDA9B27F
:40094000A160002038BD014838BD00BF01008A00E016081038B504460D4619B99921064800F070FD2369002B03DAE3682B60002038BD024838BD00BF2017081001008A00B3
:400980000F2840D8F8B515460E46044682B979B90F2804D940F29D11214800F053FD600100F1804000F50C101E4B18600020F8BD5DB366B316F01F0F2BD10F2C04D940F2BC
:4009C0009D11174800F03EFD640104F1804404F50C14144F3C607E60BD60F2080021284600F0A2FD00212046FFF77EFF3A4652F8040B0021FFF790FF68B900213868FFF725
:400A000073FF50B9F8BD084870470748F8BD0648F8BD0548F8BD0548F8BD0448F8BD00BF601708104049020803018A0001018A002DE9F0411B4B1B68DC68236883422CD9AF
:400A40000D464609A0EB4610012303FA00F819B900F063FD074600E00027124B18680368002B01DA002300E00F4B83B9626852F8263018EA030F05D023EA080342F8263082
:400A8000002400E0094C0021FFF72EFF00E0084C25B9384600F045FD00E0064C2046BDE8F08100BF4049020801008A00020188000301880004018A000B4B1B68DB681A6808
:400AC00082420CD94109A0EB4110012202FA00F05B6853F82130184203D004487047044870470448704700BF404902080101880004018A0000018800024B1B680BB9014BAF
:400B0000186070474C4902082DE9F8430446884691461E46089F072803D9B421244800F091FC244B1B682C2000FB04F01C18F5B21D50C6F307236360360CA6600F2D04D957
:400B400040F29D111C4800F07DFC6D0105F1804505F50C15256165680F2D04D94FF4DC71154800F06FFC154B03EB45156561A668330C1B0423B14FF4EB710F4800F062FCDE
:400B8000330C1B0423B140F2D7110B4800F05AFCB3B243EA0646AE60C4F81C90C4F820800023A36117B1B7F90030A381BDE8F883A01708104C49020860170810001023401D
:400BC000F0B58FB0044618B950212C4800F03AFCA369072B03D95421284800F033FCE36A1BB95621254800F02DFCE368072B03D95721224800F026FC236A072B03D958214E
:400C00001E4800F01FFC236B1BB959211B4800F019FC07AE04F114050FCD0FC62F6802AD26460FCE0FC533682B60079B1933ADF83030089B0D93A26AE16A0CAD00953B46A6
:400C40000A98FFF761FF00210091069B0A460598FFF75AFF216B2846FFF708FEBDF93030002B08DB590903F01F03012202FA03F3034A42F821300FB0F0BD00BFA017081075
:400C800000E100E0F8B507460E461D4614461AB9FC21224800F0D6FB072F03D9FD211F4800F0D0FB072E03D9FE211C4800F0CAFB1B4B1B682C2202FB073002FB0636736833
:400CC000012202FA03F31B04476802FA07F70269EAB1B169E9B91268002A01DA002200E0104AC2B92288134323600369DC600123B361756204693B0C1B0423B140F28E213D
:400D0000094800F09FFBBAB2A2600020F8BD0748F8BD0748F8BD0648F8BD00BFA01708104C49020801008A006017081004028A0007028A0070B504460E461546072804D9F6
:400D400040F25F11084800F07DFB084B1B682C2202FB0434E369AB4204D9236A43F82560002070BD024870BDA01708104C4902080A028A0070B582B000230193044620B964
:400D80004FF4D971264800F05DFB236923B940F2B311234800F056FB636923B94FF4DA711F4800F04FFB236A23B940F2B5111C4800F048FB6369DD682A0C1CD012041A6054
:400DC0001B6820690369002B15DA01A9FFF7C2FD60B9019803681E0CDBB2E269934206D2226A52F8233013B1984700E0002631462069FFF779FDADB275B16369ADB21D60CB
:400E00001B68636A1BB198470023636202E0A36A03B198470023A36163691B6802B070BDA017081000287DD00346002A7CD070B45068000280B29568AD0405F4802528432E
:400E4000D468240404F4403404431069000600F0E0602043147F0CB1012400E0002420430C1DA4011851D06828B903EB81100024C0F808410CE0012805D1146803EB811093
:400E8000C0F8084104E003EB81100124C0F80841106938B9546903EB8110C0F80C419469C0F81041146803EB8110C0F81441906CB0F1FF3F17D0946A04F00F04166B36026F
:400EC00006F470663443956B2D0405F470252543146C2403A4B22C430001C0B2204303EB8114C4F82001506A00F00300D66A360106F030063043556B2D0205F44075284317
:400F0000D46BA401E4B20443506C800000F00C00204303EB8113C3F82401126AC3F83821002003E0024870470148704770BC70470100B60030B4036813F4006F01D080228D
:400F400000E04022002408E0D0F80832C3F308039A42F9D0C0F8405201340D5D002DF3D130BC7047002800F0A98170B50546002900F0A6819E4B984200F0A48116460C46C6
:400F80000B78022B03D942219A4800F05BFA637B023BDBB2062B03D94321964800F052FAA37B3BB1022B05D0032B03D04421914800F048FA94F82130012B03D945218D484B
:400FC00000F040FA94F82830012B03D94621894800F038FA2378012B06D86368083B082B94BF0023012307E0A37F2BB16368013B062B94BF002301231BB148217D4800F060
:4010000021FAA368053B042B03D94921794800F019FA6369FF2B03D94A21764800F012FAA369FF2B03D94B21724800F00BFAA37C6BB1237833B9A368092B05D1A37B2BB11C
:40104000012304E0012302E0012300E000231BB14D21684800F0F6F9636B23F4366323F00D031BB14F21634800F0ECF9E36B23F4EE6323F003031BB150215E4800F0E2F998
:401080002378022B01D1A37F13B163685A1E00E00022237F13B14FF4803100E00021A068082802D84FF4006300E00023194302F00F030B4343F000732B60236B2A6812F450
:4010C000006F01D0802200E04022934203D36521484800F0B7F9A36B2A6812F4006F01D0802200E04022934203D36621414800F0A9F9636A2A6812F4006F01D0802200E02D
:401100004022934203D367213A4800F09BF923781B0603F040732B64637F0BB1402200E00022A17C11B14FF4806300E000231343227C12B14FF4807200E000221343627CF7
:4011400012B14FF4007200E000221A43E36A013B1B0403F470231343627B013A02F007021343A27B120102F030021343AB64237B13B14FF4807200E00022E17B21B9237884
:40118000022B03D1012302E0012300E0002313B14FF4007300E000231A43A368013B03F00F031343C5F80033227DA3691B0403F47F031343C5F81033E26AD5F8003303F0BD
:4011C0000F0303339A4201D3102A03D97D21094800F038F9E37F23B12378012B03D0002302E0002300E0012333B14FF4807204E000006940641808100022637B013B03F06C
:4012000007031A43A37B1B0103F0300313436B64237B13B14FF4807200E00022A368013B03F00F0313432278012A02D14FF4803200E000221343C5F8003294F83030C5F80A
:40124000043394F8203013B14FF0007100E0002194F82120012A02D14FF0807300E000230B4394F82820012A02D14FF4803200E00022134394F8242013432B6594F83830CF
:40128000C5F80432636B23F4926323F002031B051B0DC5F8C83FE36B23F08C035B055B0DC5F8883F86B1002070603060B060F0603062F0623063054B736370BD044870471D
:4012C000034870BD024870BD002070BDEFCDAB000160AA001F4B98422DD00CD840282ED003D8E8B1102828D02FE0802829D0B0F5807F28D029E0184B984228D006D8B0F108
:40130000204F0DD0154B984212D01EE0144B98420AD00133984209D0023B984215D101E0002070470F4870470F4870470F4870474FF4A0007047074870470D4870470D486D
:4013400070470D487047034870470C4870474FF4A400704706005200010000F0090000A0040000F0010052000200520003005200010050000200500005005200FF005200D2
:4013800008B50C4B1B69002B12DB0B4B1868FFF7A1FF0122094BC3F88C24084BD3F80C34002BFAD1054BD3F88C34002BF5D108BD034808BD200023405049020800002540AF
:4013C0000200500000B583B05523ADF80030002301930C496846FFF749FABDF90030002B08DB590903F01F03012202FA03F3064A42F82130022205490120FFF79BFC03B045
:401400005DF804FBFD42020800E100E01D44020810B5044605E0084B186800F075F8A4F50044B4F5004FF6D8044B186800FB04F000F06AF810BD00BFA8420208A44202089C
:4014400001BEFEE738B50D46044C18220146204600F072F8A5610020FFF7F2FF08470208FEE700BF08B50268254BDA6142681A6282685A62C2689A620269DA6242691A635A
:4014800082695A63C2699A631E4A916AD963D16A1964516A5964516B9964926BDA64F1EE103A13F0900F27D0026A154B1A65426A5A65826A9A65C26ADA65026B1A66426B31
:4014C0005A66826B9A66C26BDA66026C1A67426C5A67826C9A67C26CDA67026DC3F88020426DC3F88420826DC3F88820C26DC3F88C20026EC3F89020FFF7B2FF08BD00BF50
:401500000847020800ED00E00230800803D001300238FCD100BF00BF7047EFF3108072B6704780F31088704702440346934202D003F8011BFAE7704710B5034642B111F889
:40154000014B03F8014B013A002CF7D11A4400E010BD934202D003F8014BFAE710BD0000F8B500BFF8BC08BC9E467047F8B500BFF8BC08BC9E4670474645532D33312C2049
:4015800053746570616E69756B204F6C6567200D0A0A0000507265737320656E746572207220666F72207265642C206220666F7220626C756520616E64206720666F7220B2
:4015C000677265656E20626C696E6B696E67210D0A0A0000030000000100000001000000000000000503600004000000010000000000000001000000060460000800000045
:4016000020490208E50708105A00000007000000E8030000000000000000000000000000020000000040000000400000000000000100000003000000FFFFFFFF0300000062
:40164000FFFFFFFF03000000FFFFFFFF03000000FFFFFFFF03000000FFFFFFFF000000000C000000080000000002000000000000000000000000000000000000000000005B
:4016800000000000000000000B0000000000000000000000000000000000000047656E6572617465645F536F757263655C50536F43365C70646C5C647269766572735C7016
:4016C00065726970686572616C5C737973696E745C63795F737973696E742E630000000047656E6572617465645F536F757263655C50536F43365C70646C5C6472697665FE
:4017000072735C7065726970686572616C5C6970635C63795F6970635F6472762E68000047656E6572617465645F536F757263655C50536F43365C70646C5C647269766538
:4017400072735C7065726970686572616C5C6970635C63795F6970635F6472762E63000047656E6572617465645F536F757263655C50536F43365C70646C5C6472697665FD
:4017800072732F7065726970686572616C2F6970632F63795F6970635F6472762E68000047656E6572617465645F536F757263655C50536F43365C70646C5C64726976653F
:4017C00072735C7065726970686572616C5C6970635C63795F6970635F706970652E630047656E6572617465645F536F757263655C50536F43365C70646C5C64726976651B
:4018000072735C7065726970686572616C5C7363625C63795F7363625F756172742E680047656E6572617465645F536F757263655C50536F43365C70646C5C6472697665CF
:4018400072735C7065726970686572616C5C7363625C63795F7363625F636F6D6D6F6E2E6800000047656E6572617465645F536F757263655C50536F43365C70646C5C6478
:401880007269766572735C7065726970686572616C5C7363625C63795F7363625F756172742E63000000000000000810004002088C020000C81808108C4202087C040000B6
:4018C0009C4702082C0200000048E80100127A0000093D0000127A0000127A0008000000401F00000000A00F02FF0000B10208108D0208100000000080B2C300B0B13E2174
:401900000B4A116041F61E7104321160A2F584720621C2F8181523F07F43C2F81C35D2F81C35044BD3F81C35002BFADA704700BF040126400000264008B54FF26003404A42
:40194000D3589BB2A2F580229268013B032B76D8DFE803F0021F3C59032A02D10822394B9A60394A13691069C0F307221B0E581C02FB0000354B03FB00F0354B1B68354A0E
:40198000A2FB03239B09B0FBF3F08230FFF7B4FF08BD032A02D108222A4B9A602A4A13691069C0F307221B0E581C02FB0000274B03FB00F0264B1B68264AA2FB03239B096F
:4019C000B0FBF3F08230FFF797FF08BD032A02D108221C4B9A601C4A13691069C0F307221B0E581C02FB0000184B03FB00F0184B1B68184AA2FB03239B09B0FBF3F08230BA
:401A0000FFF77AFF08BD032A02D108220D4B9A600D4A13691069C0F307221B0E581C02FB00000A4B03FB00F0094B1B68094AA2FB03239B09B0FBF3F08230FFF75DFF08BD09
:401A400000002540A00023400000214040420F0090420208D34D621008B54378FF2B0ED100F048F9064BDB685A68136843F001031360136813F0010FFBD100F04BF908BD1E
:401A800080002340F8B505460E46264B1B69002B1FDB002000F01EF9234B98421BD00023224A0121184600F045F918B1204C15E0013400E00024002000F00CF91A4B98428F
:401AC00002D01C4B9C42F3D91A4B9C4205D9184C04E0174C02E0164C00E0002404BB00F009F90746144A0121144800F0FBF868B925B93046FFF700FF114C08E00F4B1B69A5
:401B0000002BFBDB00F00EF9044600E0084C0121002000F0F7F80028F9D1384600F0FAF82046F8BDA000234001018800AC42020805005200EF490200504902082000234065
:401B400001005000394B1B68002BFBDA30B4374BDA6842F00102DA60DB6813F0020F20D0324DEB689CB232490A69120A120402F47F02D1F890301B0A42EA03632343EB6007
:401B80000B6923F47F4343F410630B61D1F8903023F47F4343F41063C1F890300B69D1F89030224B00225A605B68224A136943F004031361012801D030BF07E020BF1E4B86
:401BC0001B7803B120BF01221B4B1A70184BD3F8803003F00303022BE7D0144B1B68002BFBDA124BDB6813F0020F15D010490B6923F47F420D48C3681B0C1B0203F47F4354
:401C000013430B61D1F8903023F47F42C3681B0E42EA0323C1F89030044BDA6822F00102DA6000225A6030BC704700BFE00023400000214000ED00E0604902081E4A13693C
:401C400043F004031361012801D030BF07E020BF1A4B1B7803B120BF0122184B1A70184BD3F8803003F00303022BE7D0154B1B68002BFBDA144BD3F80C31C3B941F61E7224
:401C8000124B1A60062203F582631A603E22A3F214431A60442203F583631A600C4B1B68002BFBDA4FF0AA32074BC3F80C210022044B5A60704700BF00ED00E060490208FA
:401CC00000002140E000234000002540080126401C05264001B40248844601BC604700BFB90A081001B40248844601BC604700BF1909081001B40248844601BC604700BF0C
:401D00001B15081001B40248844601BC604700BF310A081001B40248844601BC604700BF2315081001B40248844601BC604700BF8113081001B40248844601BC604700BF5C
:401D4000850C0810000000000000000000000000000000000000000000000000000000000000000000000000000000000000000000000000000000000000000000000000BA
:401D80000000000000000000000000000000000000000000000000000000000000000000000000000000000000000000000000000000000000000000000000000000000023
:401DC00000000000000000000000000000000000000000000000000000000000000000000000000000000000000000000000000000000000000000000000000000000000E3
:0200000490303A
:02000000D95EC7
:0200000490501A
:0C0000000005E20721002101E210FA5E79
:00000001FF