:020000041008E2
:4000000000780408F90208100D00000061030810610308106103081061030810000000000000000000000000000000005D0308105D030810000000005D0308105D0308104C
:400040005D0308105D0308105D0308105D0308105D0308105D0308105D0308105D0308105D0308105D0308105D0308105D0308105D0308105D0308105D0308105D03081000
:400080005D0308105D0308105D0308105D0308105D0308105D0308105D0308105D0308105D0308105D0308105D0308105D0308105D0308107D0808105D0308105D0308109B
:4000C0005D0308105D0308105D0308105D0308105D0308105D0308105D0308105D0308105D0308105D0308105D0308105D0308105D0308105D0308105D0308105D03081080
:400100005D0308105D0308105D0308105D0308105D0308105D0308105D0308105D0308105D0308105D0308105D0308105D0308105D0308105D0308105D0308105D0308103F
:400140005D0308105D0308105D0308105D0308105D0308105D0308105D0308105D0308105D0308105D0308105D0308105D0308105D0308105D0308105D0308105D030810FF
:400180005D0308105D0308105D0308105D0308105D0308105D0308105D0308105D0308105D0308105D0308105D0308105D0308105D0308105D0308105D0308105D030810BF
:4001C0005D0308105D0308105D0308105D0308105D0308105D0308105D0308105D0308105D0308105D0308105D0308105D0308105D0308105D0308105D0308105D0308107F
:400200005D0308105D0308105D0308105D0308105D0308105D0308105D0308105D0308105D0308105D0308105D0308105D0308105D0308105D0308105D0308105D0308103E
:400240005D0308105D0308105D0308105D0308105D0308105D0308105D0308105D0308105D0308105D0308105D0308105D0308105D0308105D0308105D0308105D030810FE
:400280005D0308105D0308105D03081010B5054C237833B9044B13B10448AFF300800123237010BD9C47020800000000B8150810084B10B51BB108490848AFF3008008486B
:4002C000036803B910BD074B002BFBD0BDE81040184700BF00000000A0470208B8150810B8420208000000007047EFF3108072B6704780F310887047FFF7F6FF72B6114C9B
:40030000114DAC4209DA21686268A368043BA2BFC858D050FAE70C34F3E70C490C4A00209142BCBF41F8040BFAE70A480A490860BFF34F8F00F08EFA00F068FA00F040F884
:40034000FEE70000BC150810D41508109C4702088C4902080040020808ED00E0FEE7FEE700B504207146084202D0EFF3098001E0EFF30880043000F069FEFEE70D4B1B684C
:4003800013F0010F0FD00C4B5B6913F0100F02D001220A4B1A60084B5B6913F0100F02D00122064B1A60044B5A6910225A615B69704700BF0040324000003240B8470208EB
:4003C0002DE9F04782B00023019362B69C4A536823F01F0353609B4B9A6A22F4702242F420229A62DA6A22F01002DA621A6B22F010021A631A6B22F040721A635A6A22F4B6
:40040000407242F480725A629A6942F010029A618D4C8E49204600F075FAB4F90030002B08DB5A0903F01F00012181406032884840F82210002B08DB590903F01F030122B8
:4004400002FA03F3824A42F82130824C824A0221204600F05DFE0423A360804A0021204600F056FE0121A1607D4A204600F050FE0223A3604FF00009724B1A69C2F3001201
:4004800001921A69C2F3001201921A69C2F3001201921A69C2F3001201921A69C2F3001201921B69C3F300130193019C012C04D94FF43A716B4800F0B9FD1CB90822614BBB
:4004C0005A6002E008225F4B9A60019C012C04D94FF43A71634800F0A9FD1CB90822594B5A6002E00822574B9A60019C012C04D94FF43A715B4800F099FD1CB90822514B5E
:400500005A6002E008224F4B9A60019C012C04D94FF43A71534800F089FD1CB90822494B5A6002E00822474B9A60019B012B36D1444E4FF0080AC6F808A0DFF83881022408
:40054000C8F80440484F7C60424D0423AB614FF47A7000F051FD6C61C6F804A04FF47A7000F04AFDC8F808400126AE614FF47A7000F042FD00236B61C8F804404FF47A708A
:4005800000F03AFDBC60AC614FF47A7000F034FD6E617C604FF47A7000F02EFD35E0294E4FF0080AC6F808A0DFF8C8800224C8F804402D4F7C60274D0423AB614FF4FA6082
:4005C00000F01AFD6C61C6F804A04FF47A7000F013FDC8F808400126AE614FF4FA6000F00BFD00236B61C8F804404FF47A7000F003FDBC60AC614FF4FA6000F0FDFC6E6137
:400600007C604FF47A7000F0F7FC184A136901331360174B1B68012B7FF42EAF09F10109B9F5403F03D20222124B5A6024E70222104B9A6000260E4B1E60B1461CE700BF6D
:400640000000314000003240401308107D03081000E100E0000038408C140810F014081054150810CC1208108000324080023240B847020880053240704700BF5C4AD2F844
:40068000803303F00F0303F1D00152F8212002F00702032A04D0042A05D092B9554914E0554A116811E003F1C002514951F8222002F01F02112A06D0132A04D04FF4FA41BF
:4006C00003E04E4901E04FF400418BBB484BD3F8902502F00100D3F88825C2F30172D3F8883513F0405F07D0414BD3F88835C3F30173012B02D102E0012300E0002303B134
:4007000008B9032A46D13A48D0F88025C2F31103D0F88425C2F30C02D0F88005C0F300600130B1FBF2F202FB03F2B2FBF0F131E0012B2FD12E4BD3F8402602F00100D3F882
:400740000026C2F30172D3F8003613F0405F07D0274BD3F80036C3F30173012B02D102E0012300E0002303B108B9032A12D12048D0F8002602F07F02D0F80036C3F30423E3
:40078000D0F80006C0F3044002FB01F2B2FBF3F2B2FBF0F1164BD3F88033C3F3011321FA03F215494A601648D0F89030C3F3072301330069000E0130B2FBF0F08860B2FBDF
:4007C000F3F3CB600B6103F5742202F23F220D48A0FB0202C2F387420A7503F2E7330A4AA2FB03239B098B61DB03CB61704700BF0000264000127A008C42020800366E0103
:400800000000214083DE1B43D34D621008B5104BD3F8802122F0404242F08042C3F88021D3F8802142F00042C3F88021D3F8802122F00102C3F88021FFF71EFFFFF71EFF5F
:4008400000F024F800F02AF800F0B0FB08BD00BF0000264008B5FFF748FD074AD2F8883043F47003C2F88830BFF34F8FBFF36F8FFFF73FFD08BD00BF00ED00E008B5024824
:4008800000F0C4FA08BD00BFE847020808B500221146042000F0C0F808BD00BF10B500F030FC0446044800F073F9044800F0D4F9204600F02AFC10BDBC4702080C130810DE
:4008C00038B50C4B9A680C4B9A420ED10D46044619B9FC21094800F0A9FB04F11003064A52F8230042F8235038BD1030044B53F8200038BD00ED00E000400208481308104F
:400900000000081070B338B504460D464368072B03D93621154800F089FBB4F900306268002B08DB5201D2B203F1604303F5614383F8002305E003F00F035201D2B20C499E
:40094000CA540C4B9A680C4B9A420DD11DB94521064800F06BFB2946B4F90000FFF7B0FF002038BD05487047002038BD4813081014ED00E000ED00E000400208010056005E
:4009800038B50369002B0DDA0D4604460B0C1B0423B140F2A721044800F048FBA9B26160002038BD014838BD8C13081001008A0038B50368002B01DA002300E0094B73B91A
:4009C0000D460446C2600B0C1B0423B140F28E21054800F02BFBA9B2A160002038BD014838BD00BF01008A008C13081038B504460D4619B99921064800F018FB2369002B1C
:400A000003DAE3682B60002038BD024838BD00BFCC13081001008A000F2840D8F8B515460E46044682B979B90F2804D940F29D11214800F0FBFA600100F1804000F50C10A7
:400A40001E4B18600020F8BD5DB366B316F01F0F2BD10F2C04D940F29D11174800F0E6FA640104F1804404F50C14144F3C607E60BD60F2080021284600F000FC0021204613
:400A8000FFF77EFF3A4652F8040B0021FFF790FF68B900213868FFF773FF50B9F8BD084870470748F8BD0648F8BD0548F8BD0548F8BD0448F8BD00BF0C1408103C490208A3
:400AC00003018A0001018A002DE9F0411B4B1B68DC68236883422CD90D464609A0EB4610012303FA00F819B900F00BFB074600E00027124B18680368002B01DA002300E00A
:400B00000F4B83B9626852F8263018EA030F05D023EA080342F82630002400E0094C0021FFF72EFF00E0084C25B9384600F0EDFA00E0064C2046BDE8F08100BF3C49020824
:400B400001008A00020188000301880004018A000B4B1B68DB681A6882420CD94109A0EB4110012202FA00F05B6853F82130184203D004487047044870470448704700BF74
:400B80003C4902080101880004018A0000018800024B1B680BB9014B18607047484902082DE9F8430446884691461E46089F072803D9B421244800F039FA244B1B682C2062
:400BC00000FB04F01C18F5B21D50C6F307236360360CA6600F2D04D940F29D111C4800F025FA6D0105F1804505F50C15256165680F2D04D94FF4DC71154800F017FA154B66
:400C000003EB45156561A668330C1B0423B14FF4EB710F4800F00AFA330C1B0423B140F2D7110B4800F002FAB3B243EA0646AE60C4F81C90C4F820800023A36117B1B7F9A2
:400C40000030A381BDE8F8834C140810484902080C14081000102340F0B58FB0044618B950212C4800F0E2F9A369072B03D95421284800F0DBF9E36A1BB95621254800F0DB
:400C8000D5F9E368072B03D95721224800F0CEF9236A072B03D958211E4800F0C7F9236B1BB959211B4800F0C1F907AE04F114050FCD0FC62F6802AD26460FCE0FC53368EF
:400CC0002B60079B1933ADF83030089B0D93A26AE16A0CAD00953B460A98FFF761FF00210091069B0A460598FFF75AFF216B2846FFF708FEBDF93030002B08DB590903F017
:400D00001F03012202FA03F3034A42F821300FB0F0BD00BF4C14081000E100E0F8B507460E461D4614461AB9FC21224800F07EF9072F03D9FD211F4800F078F9072E03D96B
:400D4000FE211C4800F072F91B4B1B682C2202FB073002FB06367368012202FA03F31B04476802FA07F70269EAB1B169E9B91268002A01DA002200E0104AC2B92288134321
:400D800023600369DC600123B361756204693B0C1B0423B140F28E21094800F047F9BAB2A2600020F8BD0748F8BD0748F8BD0648F8BD00BF4C1408104849020801008A0045
:400DC0000C14081004028A0007028A0070B504460E461546072804D940F25F11084800F025F9084B1B682C2202FB0434E369AB4204D9236A43F82560002070BD024870BDEE
:400E00004C140810484902080A028A0070B582B000230193044620B94FF4D971264800F005F9236923B940F2B311234800F0FEF8636923B94FF4DA711F4800F0F7F8236A37
:400E400023B940F2B5111C4800F0F0F86369DD682A0C1CD012041A601B6820690369002B15DA01A9FFF7C2FD60B9019803681E0CDBB2E269934206D2226A52F8233013B1F5
:400E8000984700E0002631462069FFF779FDADB275B16369ADB21D601B68636A1BB198470023636202E0A36A03B198470023A36163691B6802B070BD4C1408101F4B98423E
:400EC0002DD00CD840282ED003D8E8B1102828D02FE0802829D0B0F5807F28D029E0184B984228D006D8B0F1204F0DD0154B984212D01EE0144B98420AD00133984209D09E
:400F0000023B984215D101E0002070470F4870470F4870470F4870474FF4A0007047074870470D4870470D4870470D487047034870470C4870474FF4A4007047060052000B
:400F4000010000F0090000A0040000F0010052000200520003005200010050000200500005005200FF00520008B50C4B1B69002B12DB0B4B1868FFF7A1FF0122094BC3F84E
:400F80008C24084BD3F80C34002BFAD1054BD3F88C34002BF5D108BD034808BD200023404C490208000025400200500000B583B05523ADF80030002301930C496846FFF7CE
:400FC000A1FCBDF90030002B08DB590903F01F03012202FA03F3064A42F82130022205490120FFF7F3FE03B05DF804FBFD42020800E100E01D44020810B5044605E0084BBC
:40100000186800F075F8A4F50044B4F5004FF6D8044B186800FB04F000F06AF810BD00BFA8420208A442020801BEFEE738B50D46044C18220146204600F028F9A56100205E
:40104000FFF7F2FF08470208FEE700BF08B50268254BDA6142681A6282685A62C2689A620269DA6242691A6382695A63C2699A631E4A916AD963D16A1964516A5964516B9E
:401080009964926BDA64F1EE103A13F0900F27D0026A154B1A65426A5A65826A9A65C26ADA65026B1A66426B5A66826B9A66C26BDA66026C1A67426C5A67826C9A67C26CFB
:4010C000DA67026DC3F88020426DC3F88420826DC3F88820C26DC3F88C20026EC3F89020FFF7B2FF08BD00BF0847020800ED00E00230800803D001300238FCD100BF00BF80
:401100007047EFF3108072B6704780F310887047002800F0AC8070B40446002A00F0A98092F828300BB1012500E00025137F0BB1022300E000231D431669B60406F4802678
:4011400045EA060395682D0405F440351D431668300600F0E0602843136B556B43EA45031B0503F440130343906B43EA8000052E03D1D3681B029BB202E053681B029BB22E
:401180000343081D800123501368062B08D104EB81130120C3F808013F20C3F828011DE0936843B904EB81130020C3F808013120C3F8280112E0012B08D1506904EB8113DD
:4011C000C3F808011C20C3F8280107E004EB81130120C3F808011220C3F82801106A04EB8113C3F80C01506AC3F810015069C3F814019069C3F81801136EB3F1FF3F17D0BB
:40120000106C00F00F00966C360206F470663043156D2D0405F470250543906D000380B228431B01DBB2034304EB8110C0F82031D36B03F00303566C360106F03006334346
:40124000D56C2D0205F440752B43506D8001C0B21843D36D9B0003F00C03034304EB8114C4F82431D36AC4F83831002002E002487047014870BC70470100B6000244034648
:40128000934202D003F8011BFAE7704710B5034642B111F8014B03F8014B013A002CF7D11A4400E010BD934202D003F8014BFAE710BD0000F8B500BFF8BC08BC9E467047E6
:4012C000F8B500BFF8BC08BC9E46704747656E6572617465645F536F757263655C50536F43365C70646C5C647269766572732F7065726970686572616C2F6770696F2F6367
:40130000795F6770696F2E680000000003000000010000000100000000000000050360000400000001000000000000000100000006046000080000001C4902087D0808109F
:40134000000000000700000047656E6572617465645F536F757263655C50536F43365C70646C5C647269766572735C7065726970686572616C5C737973696E745C63795F04
:40138000737973696E742E630000000047656E6572617465645F536F757263655C50536F43365C70646C5C647269766572735C7065726970686572616C5C6970635C63795D
:4013C0005F6970635F6472762E68000047656E6572617465645F536F757263655C50536F43365C70646C5C647269766572735C7065726970686572616C5C6970635C63797C
:401400005F6970635F6472762E63000047656E6572617465645F536F757263655C50536F43365C70646C5C647269766572732F7065726970686572616C2F6970632F6379C7
:401440005F6970635F6472762E68000047656E6572617465645F536F757263655C50536F43365C70646C5C647269766572735C7065726970686572616C5C6970635C6379FB
:401480005F6970635F706970652E63000400000000000000000000000000000000000000E80300000080000000000000F4010000004000000000000000000000000000004F
:4014C000000000000200000003000000FFFFFFFF03000000FFFFFFFF03000000FFFFFFFF03000000FFFFFFFF03000000FFFFFFFF04000000000000000000000000000000EB
:4015000000000000E80300000080000000000000F401000000400000000000000000000000000000000000000200000003000000FFFFFFFF03000000FFFFFFFF0300000008
:40154000FFFFFFFF03000000FFFFFFFF03000000FFFFFFFF0400000000000000000000000000000000000000E80300000080000000000000F40100000040000000000000CD
:401580000000000000000000000000000200000003000000FFFFFFFF03000000FFFFFFFF03000000FFFFFFFF03000000FFFFFFFF03000000FFFFFFFF000000000000081016
:4015C000004002088C020000DC1508108C4202087C0400009C470208F00100000048E80100127A0000093D0000127A0000127A0008000000401F00000000A00F02FF0000A2
:40160000B10208108D0208100000000080B2C300B0B13E210B4A116041F61E7104321160A2F584720621C2F8181523F07F43C2F81C35D2F81C35044BD3F81C35002BFADA50
:40164000704700BF040126400000264008B54FF26003404AD3589BB2A2F580229268013B032B76D8DFE803F0021F3C59032A02D10822394B9A60394A13691069C0F3072269
:401680001B0E581C02FB0000354B03FB00F0354B1B68354AA2FB03239B09B0FBF3F08230FFF7B4FF08BD032A02D108222A4B9A602A4A13691069C0F307221B0E581C02FB13
:4016C0000000274B03FB00F0264B1B68264AA2FB03239B09B0FBF3F08230FFF797FF08BD032A02D108221C4B9A601C4A13691069C0F307221B0E581C02FB0000184B03FB71
:4017000000F0184B1B68184AA2FB03239B09B0FBF3F08230FFF77AFF08BD032A02D108220D4B9A600D4A13691069C0F307221B0E581C02FB00000A4B03FB00F0094B1B683E
:40174000094AA2FB03239B09B0FBF3F08230FFF75DFF08BD00002540A00023400000214040420F0090420208D34D621008B54378FF2B0ED100F058F9064BDB685A681368FD
:4017800043F001031360136813F0010FFBD100F053F908BD80002340F8B505460E46264B1B69002B1FDB002000F036F9234B98421BD00023224A0121184600F01DF918B18B
:4017C000204C15E0013400E00024002000F024F91A4B984202D01C4B9C42F3D91A4B9C4205D9184C04E0174C02E0164C00E0002404BB00F019F90746144A0121144800F012
:4018000023F968B925B93046FFF700FF114C08E00F4B1B69002BFBDB00F0F6F8044600E0084C0121002000F0DFF80028F9D1384600F002F92046F8BDA00023400101880096
:40184000AC42020805005200EF4902004C4902082000234001005000394B1B68002BFBDA30B4374BDA6842F00102DA60DB6813F0020F20D0324DEB689CB232490A69120ADD
:40188000120402F47F02D1F890301B0A42EA03632343EB600B6923F47F4343F410630B61D1F8903023F47F4343F41063C1F890300B69D1F89030224B00225A605B68224A4D
:4018C000136943F004031361012801D030BF07E020BF1E4B1B7803B120BF01221B4B1A70184BD3F8803003F00303022BE7D0144B1B68002BFBDA124BDB6813F0020F15D037
:4019000010490B6923F47F420D48C3681B0C1B0203F47F4313430B61D1F8903023F47F42C3681B0E42EA0323C1F89030044BDA6822F00102DA6000225A6030BC704700BF25
:40194000E00023400000214000ED00E05C4902081E4A136943F004031361012801D030BF07E020BF1A4B1B7803B120BF0122184B1A70184BD3F8803003F00303022BE7D0B0
:40198000154B1B68002BFBDA144BD3F80C31C3B941F61E72124B1A60062203F582631A603E22A3F214431A60442203F583631A600C4B1B68002BFBDA4FF0AA32074BC3F8BE
:4019C0000C210022044B5A60704700BF00ED00E05C49020800002140E000234000002540080126401C05264001B40248844601BC604700BFC90A081001B40248844601BC41
:401A0000604700BF1D0D081001B40248844601BC604700BF690F081001B40248844601BC604700BF510B081001B40248844601BC604700BF0311081001B40248844601BC84
:401A4000604700BF0B11081001B40248844601BC604700BFB1090810000000000000000000000000000000000000000000000000000000000000000000000000000000000E
:401A80000000000000000000000000000000000000000000000000000000000000000000000000000000000000000000000000000000000000000000000000000000000026
:401AC00000000000000000000000000000000000000000000000000000000000000000000000000000000000000000000000000000000000000000000000000000000000E6
:401B000000000000000000000000000000000000000000000000000000000000000000000000000000000000000000000000000000000000000000000000000000000000A5
:401B40000000000000000000000000000000000000000000000000000000000000000000000000000000000000000000000000000000000000000000000000000000000065
:401B80000000000000000000000000000000000000000000000000000000000000000000000000000000000000000000000000000000000000000000000000000000000025
:401BC00000000000000000000000000000000000000000000000000000000000000000000000000000000000000000000000000000000000000000000000000000000000E5
:0200000490303A
:02000000CA7DB7
:0200000490501A
:0C0000000005E20721002101E20FEB7D6A
:00000001FF