:020000041000EA
:4000000000400208310100100D000000950100100000000000000000000000000000000000000000000000000000000091010010000000000000000091010010910100109B
:4000400091010010A5040010910100109101001091010010910100109101001091010010910100109101001091010010910100109101001091010010910100109101001049
:400080009101001091010010910100109101001091010010910100109101001091010010910100109101001091010010910100109101001091010010910100109101001020
:4000C00010B5064C2378002B07D1054B002B02D0044800E000BF0123237010BD5404000800000000C41A0010084B10B5002B03D00749084800E000BF07480368002B00D136
:4001000010BD064B002BFBD09847F9E70000000058040008C41A0010EC000008000000007047EFF3108072B6704780F310887047FFF7F6FF72B6104C104DAC4209DA2168B6
:400140006268A368043B02DBC858D050FAE70C34F3E70B490B4A0020521A02DD043A8850FCDC094809490860BFF34F8F00F000F900F01EF8FEE70000C81A0010E01A0010E6
:4001800054040008200600080000000808ED00E0FEE7FEE700B504207146084202D0EFF3098001E0EFF30880043001F0F1F8FEE710B562B6014800F04FF9FEE7000008105A
:4001C00070B56249E0239B00CB580F2213401A00D0329200525807210A40032A05D0042A06D0002A12D15A4814E05A4A106811E01A00C0329200554952581F210A40112ABF
:4002000006D0132A04D0FA20C00103E0524801E080200002002B36D14C4BB222D2009A5801211140B125ED005A59120F032422405B591B0F1C4207D0444C63591B0F032458
:400240002340012B02D102E0012300E00023002B01D0002901D1032A4BD13C4BB022D2009D58AD03AD0B3D495958C904C90C9C58240E01231C40013401F0D4F9684321000D
:4002800001F0D0F935E0012B33D1304BC822D2009A5801251540C024E4001A59120F03210A401B591B0F194207D028490B591B0F03210B40012B02D102E0012300E000238B
:4002C000002B01D0002D01D1032A12D11F4DC022D200AB587F210B40A958090A1F263140AC58240C3440584301F09CF9210001F099F9E0239B00154AD3581B0903221340EA
:40030000D840144C6060164B1D692D0AFC32154001351969090E013101F084F9A060290001F080F90500E06020610E4BC0180E4901F078F920750D4BE818FA21890001F0B0
:4003400071F9A061C003E06170BDC0460000264000127A00C000000800366E0184050000000021403F420F0040420F00E703000010B5234BB021C9005A58520052085A50B2
:40038000E02080001A583024A2431A50802252045A501C491C4A9950A021890104329950FF211A4A995081315A58920092088020C00502435A505A588020000602435A5050
:4003C0005A58012082435A5000F042F9FFF7F8FE00F070F800F078F800F02AFAB0235B055B78002B04D0B0235B055B78DBB200E02123212B03D1064B0022DA605A6010BDC8
:400400000000264001000200840500008C050000E00023408023024AD3580320184070470000214010B5FFF77CFE084980228C58074B2340074C23438B508823034AD358D1
:40044000DB06FAD5FFF771FE10BDC04600002140FCFF00000100FA0570B50500FFF761FE0400FFF7D7FF032801D1FFF7DBFF0A4AB0239B00D55080215058084B0340084806
:40048000034353508823044AD358DB06FAD52000FFF74BFE70BDC04600002140FCFF00000300FA0510B5024800F086FC10BDC0467004000810B5034A60328021042000F066
:4004C0006BFA10BD7005000810B500F0CAFF0400044800F021FB044800F088FB200000F0C4FF10BD700400088C170010FEE7C04630B587B0484BA021C9005A580320824327
:400500005A50464990240A59454802400A510A691202120A8024640422430A610A6910400861E022920099580F208143995099582130814399509958802000060143995082
:400540000021012000F09AFC0021022000F096FC0021032000F092FC0021042000F08EFC0021002000F08AFC01A82E4903000A0032CA32C312CA12C300F0A8FC002802D059
:400580000420FFF7B3FF2449274A8B588020000603438B50254800F053FD002802D00420FFF7A4FF1C4C224BE158224A0A40E250E158214A0A40E250E25880252D062A43EE
:4005C000E250043BE1581D4A0A40E250E1581C4A0A40802189010A43E250E258802109020A43E250174A1168174B0B40802149000B431360002000F0FBFF144BE258154349
:40060000E550E158012291430A43E2506421002000F0D6FE07B030BD0000264000002140FF00FFFFC0170010087F0000400D030004050000FEFCFFFFFFFF00FFFFF0FFFF5C
:40064000FF8FFFFF00002740FFFCFFFF0C05000030B58BB09621002000F0B2FE00F088FE002801D100F074FE012000F05DFF244A516C244B0B40E82189010B435364536C6B
:400680001B0AFF2213403A2B07D11D4A516C1E4B0B40E82189010B435364FFF729FF01AC24220021200001F049F8184BE3602100174800F0C7F824220021200001F03EF8ED
:4006C000144BE3602100144800F0BCF82200134B143323CB23C223CB23C223CB23C221000F4800F0AFF824220021200001F026F86023E36021000B4800F0A4F80BB030BDE4
:4007000000002740FF00FFFFFFC5FFDF66666800000032406606000080003240C01700100003324080053240214B984230D00ED8402831D004D800281FD010282AD031E091
:4007400080282BD080235B00984229D02AE0194B984229D007D8A0231B0698420DD0164B984212D01EE0154B98420AD0144B984209D0144B984215D101E0002016E0124899
:4007800014E0124812E0124810E0A020C0030DE007480BE00F4809E00F4807E00F4805E0034803E00E4801E0A420C0037047C04606005200010000F0090000A0040000F0BC
:4007C000050000F0030000F0010052000200520003005200010050000200500005005200FF00520010B50C4B1B69002B11DB0B4B1868FFF799FF0121094B0A4AD150084B71
:40080000084AD358002BFAD1074BD358002BF6D100E0064810BDC04600002340000600080C040000000025408C0400000200500010B502220249002000F09EFA10BDC0465E
:400840003501000870B505000C00002848D0002948D0FF230A689A4303D08D21224800F069FDFF2322699A4303D08E211E4800F061FDA3685B0D03D08F211B4800F05AFD71
:4008800063685B0A03D09021174800F053FDE3695B0F03D09121144800F04CFD236A5B0F03D09221104800F045FD104BEB18DB090F4A944663441B0122682A60E268AA626C
:4008C0002269EA6262692A63A2686A626268AA61A2696A63E2691A60226A5A60002002E0044800E0034870BDF81700100000CEBF0010030401005A0070B504000D000369D5
:40090000002B0ADA0B0C03D00549064800F012FD2D042D0C6560002000E0034870BDC046A70200007818001001008A0070B505000C000368002B01DA002300E0084B002B7A
:400940000BD1EA60230C03D00649074800F0F2FC2404240CAC60002000E0014870BDC04601008A008E0200007818001070B505000C1E03D19921064800F0DCFC2B69002B81
:4009800003DAEB682360002000E0024870BDC046B818001001008A00F8B504000E0015000F283FD8002A10D100290ED10F2804D99E21FF31214800F0BDFC6401204B9C46A0
:4009C0006444204B1C60002037E0002D2CD0002E2CD0F3062CD10F2C04D99E21FF31174800F0A8FC6401164B9C466444154F3C607E60BD60F2080021280000F09FFE0021B2
:400A00002000FFF779FF3A0001CA0021FFF78EFF00280FD10B4B18680021FFF76DFF00280AD10AE0084808E0074806E0064804E0054802E0054800E00448F8BDF818001015
:400A4000000023401006000803018A0001018A00F0B583B00D001C4B1B68DC68236883422DD947097B01C01A012383401E00002903D100F0F6FC019001E000230193124B62
:400A800018680368002B01DA002300E00F4B002B0ED16368BF00DF193B68334203D0B3433B60002400E00A4C0021FFF725FF00E0084C002D04D1019800F0D7FC00E0064C87
:400AC000200003B0F0BDC0461006000801008A00020188000301880004018A000A4B1B68DA68136883420BD943095901401A0121814052689B009B580B4203D0034802E06B
:400B0000034800E003487047100600080101880004018A0000018800034B1B68002B01D1014B18607047C0461C060008F0B5474680B404000F0090461E00072803D9B42102
:400B4000254800F0F7FB254B1B682C2060431C18FF22150035402560330A13406360330CA3600F2D04D99E21FF311D4800F0E2FB6B011C4A94466344236165680F2D04D954
:400B8000DC214900164800F0D5FB6D01164B9C4665446561A668330C04D0EB214900104800F0C8FB330C04D0D821FF310C4800F0C1FB3604330C1E43AE604346E3612762B6
:400BC0000023A361069B002B02D000229B5EA38104BC9046F0BDC046381900101C060008F81800100000234000102340F0B58FB0041E03D150212E4800F09CFB6368032BE6
:400C000003D952212A4800F095FBE36A002B03D15621274800F08EFBE368072B03D95721234800F087FB236A072B03D95821204800F080FB236B002B03D159211C4800F0D8
:400C400079FB07AA1300210061C961C321C921C302AD290023001433C1CBC1C141CB41C10821535E0CAE3380079B1933B370089B0D930B9B0A980096A26AE16AFFF756FF86
:400C80002B69E868002200920021FFF74FFF216B300000F0DDFA0023F25E002A05DB1F231A401E3B9340034A13600FB0F0BDC0463819001000E100E0F8B505000F00160044
:400CC0001C00002A03D1FC21244800F033FB072D03D9FD21214800F02DFB072F03D9FE211E4800F027FB1E4B1B682C2128004843181879435918012213004D68AB401B049D
:400D00004568AA4015000269002A20D08F69002F1FD11268002A01DA002200E0114A002A19D132681204120C134333600369DE6001238B614C6204692B0C03D00A490B483F
:400D400000F0F8FA2A04120CA260002004E0084802E0084800E00748F8BDC046381900101C06000801008A008E020000F818001004028A0007028A0070B505000C0016009E
:400D8000072804D96021FF31084800F0D3FA084B1B682C2068431818C369B34204D9036AB6009C51002000E0024870BD381900101C0600080A028A0070B582B00400002348
:400DC0000193002804D1D92149002B4800F0B2FA2369002B04D1B421FF31274800F0AAFA6369002B04D1DA214900234800F0A2FA236A002B04D1B621FF311F4800F09AFAF6
:400E00006269D5682B0C1FD01B041360136820690369002B18DA01A9FFF7A8FD00280ED1019803681E0CFF221340E269934207D29B00226AD358002B02D0984700E000264A
:400E400031002069FFF758FD2D042D0C0FD063691D601B68636A002B03D098470023636203E0A36A002B00D098470023A36163691B6802B070BDC0463819001004281DD81F
:400E8000042904D94B1EFF3B9BB2132B18D8FF290CD91F2319400B4A0300C0339B009950D03080000423835000200AE007231940D0308000034BC150002002E0024800E081
:400EC000014870470000264001004A0070B5041E04D1EF2149004C4800F02CFAB023DB004A4AD358002B01DB002500E0484D002D00D086E0474B22689A4204D9EE21FF319D
:400F0000414800F017FA23689B03990BE3791B068022520413400B43B022D2003B498B50A2883D4B9A4204D9FA214900364800F001FA2289394B9A4204D9F621FF31324860
:400F400000F0F8F9A388DB04D90C23891B04344A13400B43334A2D498B50A37A0F2B04D9FC21FF31284800F0E5F9E37A0F2B04D9FE214900244800F0DDF9A289264B9A42A4
:400F800004D9FE21FF31204800F0D4F9A37A0F211940E27A1201FF2313400B43A289120221490A401343A27B1207C02189050A401343B122D20015498B50A379072B03D972
:400FC0001A49114800F0B6F9228A144B9A4203D917490D4800F0AEF90C4816494658164B1E40A3791B02E022D2001340334343504658124B1E40238A1B04094A13403343CD
:401000004350280070BDC046781900100000264003004A00FFFF0300FF1F0000FF0100000000FF018405000000FF1F0005020000060200008C050000FFF8FFFFFFFF00FE17
:4010400070B505002D492E4A8B588020000603438B502C0003E0012000F060F9013CB223DB00264AD3585B0701D4002CF3D12349B122D2008858234B034080208005034379
:401080008B50002D02D00ED0002C0CD01B49B022D2008B588020000603438B5003E0012000F03CF9013CB223DB00144AD358DB0701D4002CF3D1002D0ED0002C0CD10F4A0B
:4010C000B021C90053585B005B0853500C4953585B005B0853500BE0084B0221B222D2009950B121C9005A58C020800502435A50002C01D1044800E0002070BD000026407B
:401100008C050000FFFFFFCF02004A0010B583089A00801AC000FF228240D44381400A40072B32D89B001949CB589F46184B196A0C4022431A6228E0154B596A0C4022438D
:401140005A6222E0124B996A0C4022439A621CE00F4BD96A0C402243DA6216E00C4B196B0C4022431A6310E0094B596B0C4022435A630AE0064B996B0C4022439A6304E0D8
:40118000034BD96B0C402243DA6310BD001A00100000214083089A00801AC100FF228A40072B2BD89B001748C3589F46164B186A1040C84023E0144B586A1040C8401EE008
:4011C000114B986A1040C84019E00F4BD86A1040C84014E00C4B186B1040C8400FE00A4B586B1040C8400AE0074B986B1040C84005E0054BD86B1040C84000E00020C0B2EE
:401200007047C046201A00100000214070B504000D000B4B9A680B4B9A420BD1002903D1FC21094800F086F81034064BA400E058E55003E01034A400044BE05870BDC046A6
:4012400000ED00E000000008401A001000000010F0B583B0041E019150D04368032B03D93621294800F066F80023E05E002802DBA178FFF74BFF0023E25E6368002A12DBA4
:401280009008224EC0308000875903210A40D200FF25290091408F4399012B000B4093403B43835117E092B20F21114008398908063189001648844661444E68032002403B
:4012C000D200FF2738009040864398013B000340934033434B600E4B9A680E4B9A420FD1019B002B03D14521074800F023F80023E05E0199FFF78AFF002002E0064800E0A5
:40130000002003B0F0BDC046401A001000E100E000ED00E0000000080100560010B5034B1B78584300F094F810BDC046D400000801BEFEE770B50D00044C182201002000E3
:4013400000F004FAA5610020FFF7F2FF18040008054B802212069A649B6C002B01DB002000E002487047C0460000274003004600054B8022120198585B68FF221A4202D07A
:401380008023DB021843704700002640FEE7C04610B50A4B0268DA6142681A6282685A62C2689A620269DA6242691A6382695A63C2699A63FFF7EAFF10BDC0461804000824
:4013C000F0B5002801D0192200E064228A42924152421C4BE8256D005C590327BC433A4014435C515C59184E34405C51D03D5C59BC4322435A515A5916405E51002805D07C
:4014000010290DD921290DD8012014E01D290BD93A290BD957290BD978290BD803200AE0002008E0022006E0002004E0012002E0022000E00420054A13680F218B43034398
:401440001360F0BD00002140FFFCFFFF000025400230800803D001300238FCD1C046C0467047EFF3108072B6704780F310887047034A9369802149040B4393617047C046BC
:4014800000F02540024A9169024B0B409361704700F02540FFFFFFFE10B5074A074813580F24A34302210B43135004381358A3431943115010BDC0460000214004F00000CF
:4014C00010B5074A074813580F24A34303210B43135004381358A3431943115010BDC0460000214004F000000449054A8858054B0340C020C00103438B50704700002140D3
:4015000004F00000FF8FFFFF0449054A8858054B03408020C00103438B5070470000214004F00000FF8FFFFF70B50500012803D92A492B48FFF7FEFEFFF793FF0400294BFB
:40154000294AD3581F221340E822D200B02149058A5CD31A5A1E9341DBB29D4239D0002D14D1FFF785FFFFF797FF1F481D4943581F229343143A13434350FFF7B5FFE82327
:40158000DB00B0225205D35CDAB211E01648154943581F229343143A134343500920FFF7BDFEFFF7B1FF114BB0225205D35CDAB20D4E0C4831581F23994313400B4333509C
:4015C000012D06D10920FFF7A9FEFFF779FFFFF759FF2000FFF749FF70BDC046ED060000841A00101CFF00000000264041070000042805D1094A116804230B4313600CE0C7
:401600000006C0239B04184090239B00044AD050024A136804218B431360704710E000E000002140002243088B4274D303098B425FD3030A8B4244D3030B8B4228D3030C97
:401640008B420DD3FF22090212BA030C8B4202D31212090265D0030B8B4219D300E0090AC30B8B4201D3CB03C01A5241830B8B4201D38B03C01A5241430B8B4201D34B03E5
:40168000C01A5241030B8B4201D30B03C01A5241C30A8B4201D3CB02C01A5241830A8B4201D38B02C01A5241430A8B4201D34B02C01A5241030A8B4201D30B02C01A5241F3
:4016C000CDD2C3098B4201D3CB01C01A524183098B4201D38B01C01A524143098B4201D34B01C01A524103098B4201D30B01C01A5241C3088B4201D3CB00C01A5241830884
:401700008B4201D38B00C01A524143088B4201D34B00C01A5241411A00D20146524110467047FFE701B5002000F006F802BDC0460029F7D076E770477047C046030082188B
:40174000934202D019700133FAE77047030030B5002A0DD00C7801335D1E013A2C700131002CF5D19A189A4202D01C700133FAE730BD0000F8B5C046F8BC08BC9E4670479C
:40178000F8B5C046F8BC08BC9E4670470300000001000000010000000000000005036000040000000100000000000000010000000604600008000000E0050008A5040010D8
:4017C000F4010000140004010A0009050800000063010000000000000000000000000000000000BA0000000000000000000000000000000000001D1D47656E657261746538
:40180000645F536F757263655C50536F43365C70646C5C647269766572735C7065726970686572616C5C6770696F5C63795F6770696F2E630000000047656E657261746501
:40184000645F536F757263655C50536F43365C70646C5C647269766572735C7065726970686572616C5C6770696F5C63795F6770696F2E680000000047656E6572617465BC
:40188000645F536F757263655C50536F43365C70646C5C647269766572735C7065726970686572616C5C6970635C63795F6970635F6472762E68000047656E6572617465B7
:4018C000645F536F757263655C50536F43365C70646C5C647269766572735C7065726970686572616C5C6970635C63795F6970635F6472762E63000047656E65726174657C
:40190000645F536F757263655C50536F43365C70646C5C647269766572732F7065726970686572616C2F6970632F63795F6970635F6472762E68000047656E6572617465BD
:40194000645F536F757263655C50536F43365C70646C5C647269766572735C7065726970686572616C5C6970635C63795F6970635F706970652E630047656E657261746599
:40198000645F536F757263655C50536F43365C70646C5C647269766572735C7065726970686572616C5C737973636C6B5C63795F737973636C6B2E630000000047656E6558
:4019C00072617465645F536F757263655C50536F43365C70646C5C647269766572735C7065726970686572616C5C737973636C6B5C63795F737973636C6B2E6800000000E6
:401A00002C1100103811001044110010501100105C110010681100107411001080110010AC110010B6110010C0110010CA110010D4110010DE110010E8110010F21100106E
:401A400047656E6572617465645F536F757263655C50536F43365C70646C5C647269766572735C7065726970686572616C5C737973696E745C63795F737973696E742E63C9
:401A80000000000047656E6572617465645F536F757263655C50536F43365C70646C5C647269766572735C7065726970686572616C5C737973706D5C63795F737973706DF6
:401AC0002E630000000000000000001000000008C0000000E81A0010C00000085803000054040008CC0100000048E80100127A0000093D0000093D0000093D000400000088
:401B0000A00F00000000D00702FF0000E9000010C1000010000000000004400B12D03E22094B1A60094A0A4B1A600A4B0621A322D2009950084A98509B58074B054AD358DE
:401B4000002BFADA7047C046040126401E1F000008012640000026401C05000010B54378FF2B0DD100F05CF9064BDB685A68116801230B4313601368DB07FCD400F058F91C
:401B800010BDC04680002340F0B583B006000F0000F02EF90500032824D12B4B1B69002B22DB002000F02CF9284B98421ED00023274A0021012000F00BF9002803D0254C7E
:401BC00017E0013400E00024002000F019F91F4B984202D0204B9C42F3D91F4B9C4207D91C4C06E0002404E01A4C02E0194C00E00024002C24D100F013F90190174A012108
:401C0000174800F0DDF800280ED1002E04D13800FFF782FF134C08E0114B1B69002BFBDB00F0F6F8040000E00A4C032D05D10121002000F0D5F80028F9D1019800F0F8F817
:401C4000200003B0F0BDC046C000234001018800E000000805005200EF49020000060008000023400100500070B5304B1B68002BFBDA2E4BD96802220A43DA60DB68DB0749
:401C80001FD52A4EF2681204150C294B1A69120A1204FF2424042240110090241A59120A12060A432A43F2601969224A114090252D012943196119590A402A431A511A69BA
:401CC0001B591A4B00225A605B681B4A116904230B431361012801D030BF00E020BF134B1B68002BFBDA114BDB68DB0715D510480269104B1A4014000C4DEA68120C120247
:401D0000FF2109020A4022430261902142581340EA68120E120213434350044BDA6802218A43DA6000225A6070BDC046E000234000002140FF00FFFF00ED00E0164A116947
:401D400004230B431361012801D030BF00E020BF124B1B68002BFBDA86235B00104AD358002B14D10F4A104B1A6006220F4B1A6038320F4B1A6006320E4B1A600D4B1B680B
:401D8000002BFBDA0C4986235B00054AD1500022024B5A607047C04600ED00E0E0002340000025401E1F00000801264018052640040126401C052640AAAAAAAA0000000036
:401DC00001B40248844601BC604700BF2D09001001B40248844601BC604700BFB90C001001B40248844601BC604700BF510A001001B40248844601BC604700BF1504001084
:401E000001B40248844601BC604700BFDD0A001001B40248844601BC604700BFE507001001B40248844601BC604700BF6314001001B40248844601BC604700BF6B140010E9
:401E40000000000000000000000000000000000000000000000000000000000000000000000000000000000000000000000000000000000000000000000000000000000062
:401E80000000000000000000000000000000000000000000000000000000000000000000000000000000000000000000000000000000000000000000000000000000000022
:401EC00000000000000000000000000000000000000000000000000000000000000000000000000000000000000000000000000000000000000000000000000000000000E2
:401F000000000000000000000000000000000000000000000000000000000000000000000000000000000000000000000000000000000000000000000000000000000000A1
:401F40000000000000000000000000000000000000000000000000000000000000000000000000000000000000000000000000000000000000000000000000000000000061
:401F80000000000000000000000000000000000000000000000000000000000000000000000000000000000000000000000000000000000000000000000000000000000021
:401FC00000000000000000000000000000000000000000000000000000000000000000000000000000000000000000000000000000000000000000000000000000000000E1
:0200000490303A
:02000000A80650
:0200000490501A
:0C0000000005E20721002101E210C90602
:00000001FF